{
  "contractName": "FishToken",
  "abi": [
    {
      "inputs": [
        {
          "internalType": "address",
          "name": "_reserveAddress",
          "type": "address"
        }
      ],
      "stateMutability": "nonpayable",
      "type": "constructor"
    },
    {
      "anonymous": false,
      "inputs": [
        {
          "indexed": true,
          "internalType": "address",
          "name": "account",
          "type": "address"
        },
        {
          "indexed": true,
          "internalType": "address",
          "name": "operator",
          "type": "address"
        },
        {
          "indexed": false,
          "internalType": "bool",
          "name": "approved",
          "type": "bool"
        }
      ],
      "name": "ApprovalForAll",
      "type": "event"
    },
    {
      "anonymous": false,
      "inputs": [
        {
          "indexed": true,
          "internalType": "address",
          "name": "previousOwner",
          "type": "address"
        },
        {
          "indexed": true,
          "internalType": "address",
          "name": "newOwner",
          "type": "address"
        }
      ],
      "name": "OwnershipTransferred",
      "type": "event"
    },
    {
      "anonymous": false,
      "inputs": [
        {
          "indexed": true,
          "internalType": "address",
          "name": "operator",
          "type": "address"
        },
        {
          "indexed": true,
          "internalType": "address",
          "name": "from",
          "type": "address"
        },
        {
          "indexed": true,
          "internalType": "address",
          "name": "to",
          "type": "address"
        },
        {
          "indexed": false,
          "internalType": "uint256[]",
          "name": "ids",
          "type": "uint256[]"
        },
        {
          "indexed": false,
          "internalType": "uint256[]",
          "name": "values",
          "type": "uint256[]"
        }
      ],
      "name": "TransferBatch",
      "type": "event"
    },
    {
      "anonymous": false,
      "inputs": [
        {
          "indexed": true,
          "internalType": "address",
          "name": "operator",
          "type": "address"
        },
        {
          "indexed": true,
          "internalType": "address",
          "name": "from",
          "type": "address"
        },
        {
          "indexed": true,
          "internalType": "address",
          "name": "to",
          "type": "address"
        },
        {
          "indexed": false,
          "internalType": "uint256",
          "name": "id",
          "type": "uint256"
        },
        {
          "indexed": false,
          "internalType": "uint256",
          "name": "value",
          "type": "uint256"
        }
      ],
      "name": "TransferSingle",
      "type": "event"
    },
    {
      "anonymous": false,
      "inputs": [
        {
          "indexed": false,
          "internalType": "string",
          "name": "value",
          "type": "string"
        },
        {
          "indexed": true,
          "internalType": "uint256",
          "name": "id",
          "type": "uint256"
        }
      ],
      "name": "URI",
      "type": "event"
    },
    {
      "inputs": [
        {
          "internalType": "address",
          "name": "account",
          "type": "address"
        },
        {
          "internalType": "uint256",
          "name": "id",
          "type": "uint256"
        }
      ],
      "name": "balanceOf",
      "outputs": [
        {
          "internalType": "uint256",
          "name": "",
          "type": "uint256"
        }
      ],
      "stateMutability": "view",
      "type": "function",
      "constant": true
    },
    {
      "inputs": [
        {
          "internalType": "address[]",
          "name": "accounts",
          "type": "address[]"
        },
        {
          "internalType": "uint256[]",
          "name": "ids",
          "type": "uint256[]"
        }
      ],
      "name": "balanceOfBatch",
      "outputs": [
        {
          "internalType": "uint256[]",
          "name": "",
          "type": "uint256[]"
        }
      ],
      "stateMutability": "view",
      "type": "function",
      "constant": true
    },
    {
      "inputs": [
        {
          "internalType": "address",
          "name": "account",
          "type": "address"
        },
        {
          "internalType": "address",
          "name": "operator",
          "type": "address"
        }
      ],
      "name": "isApprovedForAll",
      "outputs": [
        {
          "internalType": "bool",
          "name": "",
          "type": "bool"
        }
      ],
      "stateMutability": "view",
      "type": "function",
      "constant": true
    },
    {
      "inputs": [],
      "name": "isSaleActive",
      "outputs": [
        {
          "internalType": "bool",
          "name": "",
          "type": "bool"
        }
      ],
      "stateMutability": "view",
      "type": "function",
      "constant": true
    },
    {
      "inputs": [],
      "name": "maxFish",
      "outputs": [
        {
          "internalType": "uint256",
          "name": "",
          "type": "uint256"
        }
      ],
      "stateMutability": "view",
      "type": "function",
      "constant": true
    },
    {
      "inputs": [],
      "name": "owner",
      "outputs": [
        {
          "internalType": "address",
          "name": "",
          "type": "address"
        }
      ],
      "stateMutability": "view",
      "type": "function",
      "constant": true
    },
    {
      "inputs": [],
      "name": "pricePerFish",
      "outputs": [
        {
          "internalType": "uint256",
          "name": "",
          "type": "uint256"
        }
      ],
      "stateMutability": "view",
      "type": "function",
      "constant": true
    },
    {
      "inputs": [],
      "name": "renounceOwnership",
      "outputs": [],
      "stateMutability": "nonpayable",
      "type": "function"
    },
    {
      "inputs": [
        {
          "internalType": "address",
          "name": "from",
          "type": "address"
        },
        {
          "internalType": "address",
          "name": "to",
          "type": "address"
        },
        {
          "internalType": "uint256[]",
          "name": "ids",
          "type": "uint256[]"
        },
        {
          "internalType": "uint256[]",
          "name": "amounts",
          "type": "uint256[]"
        },
        {
          "internalType": "bytes",
          "name": "data",
          "type": "bytes"
        }
      ],
      "name": "safeBatchTransferFrom",
      "outputs": [],
      "stateMutability": "nonpayable",
      "type": "function"
    },
    {
      "inputs": [
        {
          "internalType": "address",
          "name": "from",
          "type": "address"
        },
        {
          "internalType": "address",
          "name": "to",
          "type": "address"
        },
        {
          "internalType": "uint256",
          "name": "id",
          "type": "uint256"
        },
        {
          "internalType": "uint256",
          "name": "amount",
          "type": "uint256"
        },
        {
          "internalType": "bytes",
          "name": "data",
          "type": "bytes"
        }
      ],
      "name": "safeTransferFrom",
      "outputs": [],
      "stateMutability": "nonpayable",
      "type": "function"
    },
    {
      "inputs": [
        {
          "internalType": "address",
          "name": "operator",
          "type": "address"
        },
        {
          "internalType": "bool",
          "name": "approved",
          "type": "bool"
        }
      ],
      "name": "setApprovalForAll",
      "outputs": [],
      "stateMutability": "nonpayable",
      "type": "function"
    },
    {
      "inputs": [
        {
          "internalType": "bytes4",
          "name": "interfaceId",
          "type": "bytes4"
        }
      ],
      "name": "supportsInterface",
      "outputs": [
        {
          "internalType": "bool",
          "name": "",
          "type": "bool"
        }
      ],
      "stateMutability": "view",
      "type": "function",
      "constant": true
    },
    {
      "inputs": [],
      "name": "totalSupply",
      "outputs": [
        {
          "internalType": "uint256",
          "name": "",
          "type": "uint256"
        }
      ],
      "stateMutability": "view",
      "type": "function",
      "constant": true
    },
    {
      "inputs": [
        {
          "internalType": "address",
          "name": "newOwner",
          "type": "address"
        }
      ],
      "name": "transferOwnership",
      "outputs": [],
      "stateMutability": "nonpayable",
      "type": "function"
    },
    {
      "inputs": [
        {
          "internalType": "uint256",
          "name": "",
          "type": "uint256"
        }
      ],
      "name": "uri",
      "outputs": [
        {
          "internalType": "string",
          "name": "",
          "type": "string"
        }
      ],
      "stateMutability": "view",
      "type": "function",
      "constant": true
    },
    {
      "inputs": [],
      "name": "flipSaleState",
      "outputs": [],
      "stateMutability": "nonpayable",
      "type": "function"
    },
    {
      "inputs": [
        {
          "internalType": "string",
          "name": "URI",
          "type": "string"
        }
      ],
      "name": "setURI",
      "outputs": [],
      "stateMutability": "nonpayable",
      "type": "function"
    },
    {
      "inputs": [
        {
          "internalType": "uint256",
          "name": "count",
          "type": "uint256"
        }
      ],
      "name": "reserveFish",
      "outputs": [],
      "stateMutability": "nonpayable",
      "type": "function"
    },
    {
      "inputs": [
        {
          "internalType": "uint256",
          "name": "count",
          "type": "uint256"
        }
      ],
      "name": "mintFish",
      "outputs": [],
      "stateMutability": "payable",
      "type": "function",
      "payable": true
    }
  ],
  "bytecode": "0x60e06040523480156200001157600080fd5b50604051620039fb380380620039fb8339818101604052810190620000379190620002ff565b6040518060400160405280600481526020017f46697368000000000000000000000000000000000000000000000000000000008152506200007e81620000fb60201b60201c565b506200009f620000936200011760201b60201c565b6200011f60201b60201c565b66670758aa7c8000608081815250506103e860a0818152505060016004819055508073ffffffffffffffffffffffffffffffffffffffff1660c08173ffffffffffffffffffffffffffffffffffffffff16815250505062000396565b806002908051906020019062000113929190620001e5565b5050565b600033905090565b6000600360009054906101000a900473ffffffffffffffffffffffffffffffffffffffff16905081600360006101000a81548173ffffffffffffffffffffffffffffffffffffffff021916908373ffffffffffffffffffffffffffffffffffffffff1602179055508173ffffffffffffffffffffffffffffffffffffffff168173ffffffffffffffffffffffffffffffffffffffff167f8be0079c531659141344cd1fd0a4f28419497f9722a3daafe3b4186f6b6457e060405160405180910390a35050565b828054620001f39062000360565b90600052602060002090601f01602090048101928262000217576000855562000263565b82601f106200023257805160ff191683800117855562000263565b8280016001018555821562000263579182015b828111156200026257825182559160200191906001019062000245565b5b50905062000272919062000276565b5090565b5b808211156200029157600081600090555060010162000277565b5090565b600080fd5b600073ffffffffffffffffffffffffffffffffffffffff82169050919050565b6000620002c7826200029a565b9050919050565b620002d981620002ba565b8114620002e557600080fd5b50565b600081519050620002f981620002ce565b92915050565b60006020828403121562000318576200031762000295565b5b60006200032884828501620002e8565b91505092915050565b7f4e487b7100000000000000000000000000000000000000000000000000000000600052602260045260246000fd5b600060028204905060018216806200037957607f821691505b6020821081141562000390576200038f62000331565b5b50919050565b60805160a05160c05161361c620003df60003960005050600081816109a401528181610b4501528181610bf60152610d60015260008181610a500152610c68015261361c6000f3fe6080604052600436106101135760003560e01c806366ba6eb5116100a0578063c0095e7711610064578063c0095e771461038c578063e6c0be98146103b5578063e985e9c5146103d1578063f242432a1461040e578063f2fde38b1461043757610113565b806366ba6eb5146102cb578063715018a6146102f657806384fc34b71461030d5780638da5cb5b14610338578063a22cb4651461036357610113565b806318160ddd116100e757806318160ddd146101f85780632eb2c2d61461022357806334918dfd1461024c5780634e1273f414610263578063564566a8146102a057610113565b8062fdd58e1461011857806301ffc9a71461015557806302fe5305146101925780630e89341c146101bb575b600080fd5b34801561012457600080fd5b5061013f600480360381019061013a9190611f78565b610460565b60405161014c9190611fc7565b60405180910390f35b34801561016157600080fd5b5061017c6004803603810190610177919061203a565b610529565b6040516101899190612082565b60405180910390f35b34801561019e57600080fd5b506101b960048036038101906101b491906121e3565b61060b565b005b3480156101c757600080fd5b506101e260048036038101906101dd919061222c565b610693565b6040516101ef91906122e1565b60405180910390f35b34801561020457600080fd5b5061020d610727565b60405161021a9190611fc7565b60405180910390f35b34801561022f57600080fd5b5061024a6004803603810190610245919061246c565b61072d565b005b34801561025857600080fd5b506102616107ce565b005b34801561026f57600080fd5b5061028a600480360381019061028591906125fe565b610876565b6040516102979190612734565b60405180910390f35b3480156102ac57600080fd5b506102b561098f565b6040516102c29190612082565b60405180910390f35b3480156102d757600080fd5b506102e06109a2565b6040516102ed9190611fc7565b60405180910390f35b34801561030257600080fd5b5061030b6109c6565b005b34801561031957600080fd5b50610322610a4e565b60405161032f9190611fc7565b60405180910390f35b34801561034457600080fd5b5061034d610a72565b60405161035a9190612765565b60405180910390f35b34801561036f57600080fd5b5061038a600480360381019061038591906127ac565b610a9c565b005b34801561039857600080fd5b506103b360048036038101906103ae919061222c565b610ab2565b005b6103cf60048036038101906103ca919061222c565b610ba5565b005b3480156103dd57600080fd5b506103f860048036038101906103f391906127ec565b610dc0565b6040516104059190612082565b60405180910390f35b34801561041a57600080fd5b506104356004803603810190610430919061282c565b610e54565b005b34801561044357600080fd5b5061045e600480360381019061045991906128c3565b610ef5565b005b60008073ffffffffffffffffffffffffffffffffffffffff168373ffffffffffffffffffffffffffffffffffffffff1614156104d1576040517f08c379a00000000000000000000000000000000000000000000000000000000081526004016104c890612962565b60405180910390fd5b60008083815260200190815260200160002060008473ffffffffffffffffffffffffffffffffffffffff1673ffffffffffffffffffffffffffffffffffffffff16815260200190815260200160002054905092915050565b60007fd9b67a26000000000000000000000000000000000000000000000000000000007bffffffffffffffffffffffffffffffffffffffffffffffffffffffff1916827bffffffffffffffffffffffffffffffffffffffffffffffffffffffff191614806105f457507f0e89341c000000000000000000000000000000000000000000000000000000007bffffffffffffffffffffffffffffffffffffffffffffffffffffffff1916827bffffffffffffffffffffffffffffffffffffffffffffffffffffffff1916145b80610604575061060382610fed565b5b9050919050565b610613611057565b73ffffffffffffffffffffffffffffffffffffffff16610631610a72565b73ffffffffffffffffffffffffffffffffffffffff1614610687576040517f08c379a000000000000000000000000000000000000000000000000000000000815260040161067e906129ce565b60405180910390fd5b6106908161105f565b50565b6060600280546106a290612a1d565b80601f01602080910402602001604051908101604052809291908181526020018280546106ce90612a1d565b801561071b5780601f106106f05761010080835404028352916020019161071b565b820191906000526020600020905b8154815290600101906020018083116106fe57829003601f168201915b50505050509050919050565b60045481565b610735611057565b73ffffffffffffffffffffffffffffffffffffffff168573ffffffffffffffffffffffffffffffffffffffff16148061077b575061077a85610775611057565b610dc0565b5b6107ba576040517f08c379a00000000000000000000000000000000000000000000000000000000081526004016107b190612ac1565b60405180910390fd5b6107c78585858585611079565b5050505050565b6107d6611057565b73ffffffffffffffffffffffffffffffffffffffff166107f4610a72565b73ffffffffffffffffffffffffffffffffffffffff161461084a576040517f08c379a0000000000000000000000000000000000000000000000000000000008152600401610841906129ce565b60405180910390fd5b600560009054906101000a900460ff1615600560006101000a81548160ff021916908315150217905550565b606081518351146108bc576040517f08c379a00000000000000000000000000000000000000000000000000000000081526004016108b390612b53565b60405180910390fd5b6000835167ffffffffffffffff8111156108d9576108d86120b8565b5b6040519080825280602002602001820160405280156109075781602001602082028036833780820191505090505b50905060005b84518110156109845761095485828151811061092c5761092b612b73565b5b602002602001015185838151811061094757610946612b73565b5b6020026020010151610460565b82828151811061096757610966612b73565b5b6020026020010181815250508061097d90612bd1565b905061090d565b508091505092915050565b600560009054906101000a900460ff1681565b7f000000000000000000000000000000000000000000000000000000000000000081565b6109ce611057565b73ffffffffffffffffffffffffffffffffffffffff166109ec610a72565b73ffffffffffffffffffffffffffffffffffffffff1614610a42576040517f08c379a0000000000000000000000000000000000000000000000000000000008152600401610a39906129ce565b60405180910390fd5b610a4c600061138d565b565b7f000000000000000000000000000000000000000000000000000000000000000081565b6000600360009054906101000a900473ffffffffffffffffffffffffffffffffffffffff16905090565b610aae610aa7611057565b8383611453565b5050565b610aba611057565b73ffffffffffffffffffffffffffffffffffffffff16610ad8610a72565b73ffffffffffffffffffffffffffffffffffffffff1614610b2e576040517f08c379a0000000000000000000000000000000000000000000000000000000008152600401610b25906129ce565b60405180910390fd5b606460045410610b3d57600080fd5b6000600190507f00000000000000000000000000000000000000000000000000000000000000006004541015610ba157610b88338284604051806020016040528060008152506115c0565b60046000815480929190610b9b90612bd1565b91905055505b5050565b600560009054906101000a900460ff16610bf4576040517f08c379a0000000000000000000000000000000000000000000000000000000008152600401610beb90612c66565b60405180910390fd5b7f00000000000000000000000000000000000000000000000000000000000000006001600454610c249190612c86565b1115610c65576040517f08c379a0000000000000000000000000000000000000000000000000000000008152600401610c5c90612d4e565b60405180910390fd5b347f000000000000000000000000000000000000000000000000000000000000000014610cc7576040517f08c379a0000000000000000000000000000000000000000000000000000000008152600401610cbe90612dba565b60405180910390fd5b60008111610d0a576040517f08c379a0000000000000000000000000000000000000000000000000000000008152600401610d0190612e26565b60405180910390fd5b610d12610a72565b73ffffffffffffffffffffffffffffffffffffffff166108fc349081150290604051600060405180830381858888f19350505050158015610d57573d6000803e3d6000fd5b506000600190507f00000000000000000000000000000000000000000000000000000000000000006004541015610dbc57610da3338284604051806020016040528060008152506115c0565b60046000815480929190610db690612bd1565b91905055505b5050565b6000600160008473ffffffffffffffffffffffffffffffffffffffff1673ffffffffffffffffffffffffffffffffffffffff16815260200190815260200160002060008373ffffffffffffffffffffffffffffffffffffffff1673ffffffffffffffffffffffffffffffffffffffff16815260200190815260200160002060009054906101000a900460ff16905092915050565b610e5c611057565b73ffffffffffffffffffffffffffffffffffffffff168573ffffffffffffffffffffffffffffffffffffffff161480610ea25750610ea185610e9c611057565b610dc0565b5b610ee1576040517f08c379a0000000000000000000000000000000000000000000000000000000008152600401610ed890612eb8565b60405180910390fd5b610eee8585858585611756565b5050505050565b610efd611057565b73ffffffffffffffffffffffffffffffffffffffff16610f1b610a72565b73ffffffffffffffffffffffffffffffffffffffff1614610f71576040517f08c379a0000000000000000000000000000000000000000000000000000000008152600401610f68906129ce565b60405180910390fd5b600073ffffffffffffffffffffffffffffffffffffffff168173ffffffffffffffffffffffffffffffffffffffff161415610fe1576040517f08c379a0000000000000000000000000000000000000000000000000000000008152600401610fd890612f4a565b60405180910390fd5b610fea8161138d565b50565b60007f01ffc9a7000000000000000000000000000000000000000000000000000000007bffffffffffffffffffffffffffffffffffffffffffffffffffffffff1916827bffffffffffffffffffffffffffffffffffffffffffffffffffffffff1916149050919050565b600033905090565b8060029080519060200190611075929190611e2d565b5050565b81518351146110bd576040517f08c379a00000000000000000000000000000000000000000000000000000000081526004016110b490612fdc565b60405180910390fd5b600073ffffffffffffffffffffffffffffffffffffffff168473ffffffffffffffffffffffffffffffffffffffff16141561112d576040517f08c379a00000000000000000000000000000000000000000000000000000000081526004016111249061306e565b60405180910390fd5b6000611137611057565b90506111478187878787876119d8565b60005b84518110156112f857600085828151811061116857611167612b73565b5b60200260200101519050600085838151811061118757611186612b73565b5b60200260200101519050600080600084815260200190815260200160002060008b73ffffffffffffffffffffffffffffffffffffffff1673ffffffffffffffffffffffffffffffffffffffff16815260200190815260200160002054905081811015611228576040517f08c379a000000000000000000000000000000000000000000000000000000000815260040161121f90613100565b60405180910390fd5b81810360008085815260200190815260200160002060008c73ffffffffffffffffffffffffffffffffffffffff1673ffffffffffffffffffffffffffffffffffffffff168152602001908152602001600020819055508160008085815260200190815260200160002060008b73ffffffffffffffffffffffffffffffffffffffff1673ffffffffffffffffffffffffffffffffffffffff16815260200190815260200160002060008282546112dd9190612c86565b92505081905550505050806112f190612bd1565b905061114a565b508473ffffffffffffffffffffffffffffffffffffffff168673ffffffffffffffffffffffffffffffffffffffff168273ffffffffffffffffffffffffffffffffffffffff167f4a39dc06d4c0dbc64b70af90fd698a233a518aa5d07e595d983b8c0526c8f7fb878760405161136f929190613120565b60405180910390a46113858187878787876119e0565b505050505050565b6000600360009054906101000a900473ffffffffffffffffffffffffffffffffffffffff16905081600360006101000a81548173ffffffffffffffffffffffffffffffffffffffff021916908373ffffffffffffffffffffffffffffffffffffffff1602179055508173ffffffffffffffffffffffffffffffffffffffff168173ffffffffffffffffffffffffffffffffffffffff167f8be0079c531659141344cd1fd0a4f28419497f9722a3daafe3b4186f6b6457e060405160405180910390a35050565b8173ffffffffffffffffffffffffffffffffffffffff168373ffffffffffffffffffffffffffffffffffffffff1614156114c2576040517f08c379a00000000000000000000000000000000000000000000000000000000081526004016114b9906131c9565b60405180910390fd5b80600160008573ffffffffffffffffffffffffffffffffffffffff1673ffffffffffffffffffffffffffffffffffffffff16815260200190815260200160002060008473ffffffffffffffffffffffffffffffffffffffff1673ffffffffffffffffffffffffffffffffffffffff16815260200190815260200160002060006101000a81548160ff0219169083151502179055508173ffffffffffffffffffffffffffffffffffffffff168373ffffffffffffffffffffffffffffffffffffffff167f17307eab39ab6107e8899845ad3d59bd9653f200f220920489ca2b5937696c31836040516115b39190612082565b60405180910390a3505050565b600073ffffffffffffffffffffffffffffffffffffffff168473ffffffffffffffffffffffffffffffffffffffff161415611630576040517f08c379a00000000000000000000000000000000000000000000000000000000081526004016116279061325b565b60405180910390fd5b600061163a611057565b905061165b8160008761164c88611bb8565b61165588611bb8565b876119d8565b8260008086815260200190815260200160002060008773ffffffffffffffffffffffffffffffffffffffff1673ffffffffffffffffffffffffffffffffffffffff16815260200190815260200160002060008282546116ba9190612c86565b925050819055508473ffffffffffffffffffffffffffffffffffffffff16600073ffffffffffffffffffffffffffffffffffffffff168273ffffffffffffffffffffffffffffffffffffffff167fc3d58168c5ae7397731d063d5bbf3d657854427343f4c083240f7aacaa2d0f62878760405161173892919061327b565b60405180910390a461174f81600087878787611c32565b5050505050565b600073ffffffffffffffffffffffffffffffffffffffff168473ffffffffffffffffffffffffffffffffffffffff1614156117c6576040517f08c379a00000000000000000000000000000000000000000000000000000000081526004016117bd9061306e565b60405180910390fd5b60006117d0611057565b90506117f08187876117e188611bb8565b6117ea88611bb8565b876119d8565b600080600086815260200190815260200160002060008873ffffffffffffffffffffffffffffffffffffffff1673ffffffffffffffffffffffffffffffffffffffff16815260200190815260200160002054905083811015611887576040517f08c379a000000000000000000000000000000000000000000000000000000000815260040161187e90613100565b60405180910390fd5b83810360008087815260200190815260200160002060008973ffffffffffffffffffffffffffffffffffffffff1673ffffffffffffffffffffffffffffffffffffffff168152602001908152602001600020819055508360008087815260200190815260200160002060008873ffffffffffffffffffffffffffffffffffffffff1673ffffffffffffffffffffffffffffffffffffffff168152602001908152602001600020600082825461193c9190612c86565b925050819055508573ffffffffffffffffffffffffffffffffffffffff168773ffffffffffffffffffffffffffffffffffffffff168373ffffffffffffffffffffffffffffffffffffffff167fc3d58168c5ae7397731d063d5bbf3d657854427343f4c083240f7aacaa2d0f6288886040516119b992919061327b565b60405180910390a46119cf828888888888611c32565b50505050505050565b505050505050565b6119ff8473ffffffffffffffffffffffffffffffffffffffff16611e0a565b15611bb0578373ffffffffffffffffffffffffffffffffffffffff1663bc197c8187878686866040518663ffffffff1660e01b8152600401611a459594939291906132f9565b6020604051808303816000875af1925050508015611a8157506040513d601f19601f82011682018060405250810190611a7e9190613376565b60015b611b2757611a8d6133b0565b806308c379a01415611aea5750611aa26133d2565b80611aad5750611aec565b806040517f08c379a0000000000000000000000000000000000000000000000000000000008152600401611ae191906122e1565b60405180910390fd5b505b6040517f08c379a0000000000000000000000000000000000000000000000000000000008152600401611b1e906134da565b60405180910390fd5b63bc197c8160e01b7bffffffffffffffffffffffffffffffffffffffffffffffffffffffff1916817bffffffffffffffffffffffffffffffffffffffffffffffffffffffff191614611bae576040517f08c379a0000000000000000000000000000000000000000000000000000000008152600401611ba59061356c565b60405180910390fd5b505b505050505050565b60606000600167ffffffffffffffff811115611bd757611bd66120b8565b5b604051908082528060200260200182016040528015611c055781602001602082028036833780820191505090505b5090508281600081518110611c1d57611c1c612b73565b5b60200260200101818152505080915050919050565b611c518473ffffffffffffffffffffffffffffffffffffffff16611e0a565b15611e02578373ffffffffffffffffffffffffffffffffffffffff1663f23a6e6187878686866040518663ffffffff1660e01b8152600401611c9795949392919061358c565b6020604051808303816000875af1925050508015611cd357506040513d601f19601f82011682018060405250810190611cd09190613376565b60015b611d7957611cdf6133b0565b806308c379a01415611d3c5750611cf46133d2565b80611cff5750611d3e565b806040517f08c379a0000000000000000000000000000000000000000000000000000000008152600401611d3391906122e1565b60405180910390fd5b505b6040517f08c379a0000000000000000000000000000000000000000000000000000000008152600401611d70906134da565b60405180910390fd5b63f23a6e6160e01b7bffffffffffffffffffffffffffffffffffffffffffffffffffffffff1916817bffffffffffffffffffffffffffffffffffffffffffffffffffffffff191614611e00576040517f08c379a0000000000000000000000000000000000000000000000000000000008152600401611df79061356c565b60405180910390fd5b505b505050505050565b6000808273ffffffffffffffffffffffffffffffffffffffff163b119050919050565b828054611e3990612a1d565b90600052602060002090601f016020900481019282611e5b5760008555611ea2565b82601f10611e7457805160ff1916838001178555611ea2565b82800160010185558215611ea2579182015b82811115611ea1578251825591602001919060010190611e86565b5b509050611eaf9190611eb3565b5090565b5b80821115611ecc576000816000905550600101611eb4565b5090565b6000604051905090565b600080fd5b600080fd5b600073ffffffffffffffffffffffffffffffffffffffff82169050919050565b6000611f0f82611ee4565b9050919050565b611f1f81611f04565b8114611f2a57600080fd5b50565b600081359050611f3c81611f16565b92915050565b6000819050919050565b611f5581611f42565b8114611f6057600080fd5b50565b600081359050611f7281611f4c565b92915050565b60008060408385031215611f8f57611f8e611eda565b5b6000611f9d85828601611f2d565b9250506020611fae85828601611f63565b9150509250929050565b611fc181611f42565b82525050565b6000602082019050611fdc6000830184611fb8565b92915050565b60007fffffffff0000000000000000000000000000000000000000000000000000000082169050919050565b61201781611fe2565b811461202257600080fd5b50565b6000813590506120348161200e565b92915050565b6000602082840312156120505761204f611eda565b5b600061205e84828501612025565b91505092915050565b60008115159050919050565b61207c81612067565b82525050565b60006020820190506120976000830184612073565b92915050565b600080fd5b600080fd5b6000601f19601f8301169050919050565b7f4e487b7100000000000000000000000000000000000000000000000000000000600052604160045260246000fd5b6120f0826120a7565b810181811067ffffffffffffffff8211171561210f5761210e6120b8565b5b80604052505050565b6000612122611ed0565b905061212e82826120e7565b919050565b600067ffffffffffffffff82111561214e5761214d6120b8565b5b612157826120a7565b9050602081019050919050565b82818337600083830152505050565b600061218661218184612133565b612118565b9050828152602081018484840111156121a2576121a16120a2565b5b6121ad848285612164565b509392505050565b600082601f8301126121ca576121c961209d565b5b81356121da848260208601612173565b91505092915050565b6000602082840312156121f9576121f8611eda565b5b600082013567ffffffffffffffff81111561221757612216611edf565b5b612223848285016121b5565b91505092915050565b60006020828403121561224257612241611eda565b5b600061225084828501611f63565b91505092915050565b600081519050919050565b600082825260208201905092915050565b60005b83811015612293578082015181840152602081019050612278565b838111156122a2576000848401525b50505050565b60006122b382612259565b6122bd8185612264565b93506122cd818560208601612275565b6122d6816120a7565b840191505092915050565b600060208201905081810360008301526122fb81846122a8565b905092915050565b600067ffffffffffffffff82111561231e5761231d6120b8565b5b602082029050602081019050919050565b600080fd5b600061234761234284612303565b612118565b9050808382526020820190506020840283018581111561236a5761236961232f565b5b835b81811015612393578061237f8882611f63565b84526020840193505060208101905061236c565b5050509392505050565b600082601f8301126123b2576123b161209d565b5b81356123c2848260208601612334565b91505092915050565b600067ffffffffffffffff8211156123e6576123e56120b8565b5b6123ef826120a7565b9050602081019050919050565b600061240f61240a846123cb565b612118565b90508281526020810184848401111561242b5761242a6120a2565b5b612436848285612164565b509392505050565b600082601f8301126124535761245261209d565b5b81356124638482602086016123fc565b91505092915050565b600080600080600060a0868803121561248857612487611eda565b5b600061249688828901611f2d565b95505060206124a788828901611f2d565b945050604086013567ffffffffffffffff8111156124c8576124c7611edf565b5b6124d48882890161239d565b935050606086013567ffffffffffffffff8111156124f5576124f4611edf565b5b6125018882890161239d565b925050608086013567ffffffffffffffff81111561252257612521611edf565b5b61252e8882890161243e565b9150509295509295909350565b600067ffffffffffffffff821115612556576125556120b8565b5b602082029050602081019050919050565b600061257a6125758461253b565b612118565b9050808382526020820190506020840283018581111561259d5761259c61232f565b5b835b818110156125c657806125b28882611f2d565b84526020840193505060208101905061259f565b5050509392505050565b600082601f8301126125e5576125e461209d565b5b81356125f5848260208601612567565b91505092915050565b6000806040838503121561261557612614611eda565b5b600083013567ffffffffffffffff81111561263357612632611edf565b5b61263f858286016125d0565b925050602083013567ffffffffffffffff8111156126605761265f611edf565b5b61266c8582860161239d565b9150509250929050565b600081519050919050565b600082825260208201905092915050565b6000819050602082019050919050565b6126ab81611f42565b82525050565b60006126bd83836126a2565b60208301905092915050565b6000602082019050919050565b60006126e182612676565b6126eb8185612681565b93506126f683612692565b8060005b8381101561272757815161270e88826126b1565b9750612719836126c9565b9250506001810190506126fa565b5085935050505092915050565b6000602082019050818103600083015261274e81846126d6565b905092915050565b61275f81611f04565b82525050565b600060208201905061277a6000830184612756565b92915050565b61278981612067565b811461279457600080fd5b50565b6000813590506127a681612780565b92915050565b600080604083850312156127c3576127c2611eda565b5b60006127d185828601611f2d565b92505060206127e285828601612797565b9150509250929050565b6000806040838503121561280357612802611eda565b5b600061281185828601611f2d565b925050602061282285828601611f2d565b9150509250929050565b600080600080600060a0868803121561284857612847611eda565b5b600061285688828901611f2d565b955050602061286788828901611f2d565b945050604061287888828901611f63565b935050606061288988828901611f63565b925050608086013567ffffffffffffffff8111156128aa576128a9611edf565b5b6128b68882890161243e565b9150509295509295909350565b6000602082840312156128d9576128d8611eda565b5b60006128e784828501611f2d565b91505092915050565b7f455243313135353a2062616c616e636520717565727920666f7220746865207a60008201527f65726f2061646472657373000000000000000000000000000000000000000000602082015250565b600061294c602b83612264565b9150612957826128f0565b604082019050919050565b6000602082019050818103600083015261297b8161293f565b9050919050565b7f4f776e61626c653a2063616c6c6572206973206e6f7420746865206f776e6572600082015250565b60006129b8602083612264565b91506129c382612982565b602082019050919050565b600060208201905081810360008301526129e7816129ab565b9050919050565b7f4e487b7100000000000000000000000000000000000000000000000000000000600052602260045260246000fd5b60006002820490506001821680612a3557607f821691505b60208210811415612a4957612a486129ee565b5b50919050565b7f455243313135353a207472616e736665722063616c6c6572206973206e6f742060008201527f6f776e6572206e6f7220617070726f7665640000000000000000000000000000602082015250565b6000612aab603283612264565b9150612ab682612a4f565b604082019050919050565b60006020820190508181036000830152612ada81612a9e565b9050919050565b7f455243313135353a206163636f756e747320616e6420696473206c656e67746860008201527f206d69736d617463680000000000000000000000000000000000000000000000602082015250565b6000612b3d602983612264565b9150612b4882612ae1565b604082019050919050565b60006020820190508181036000830152612b6c81612b30565b9050919050565b7f4e487b7100000000000000000000000000000000000000000000000000000000600052603260045260246000fd5b7f4e487b7100000000000000000000000000000000000000000000000000000000600052601160045260246000fd5b6000612bdc82611f42565b91507fffffffffffffffffffffffffffffffffffffffffffffffffffffffffffffffff821415612c0f57612c0e612ba2565b5b600182019050919050565b7f53616c65206973206e6f74206163746976650000000000000000000000000000600082015250565b6000612c50601283612264565b9150612c5b82612c1a565b602082019050919050565b60006020820190508181036000830152612c7f81612c43565b9050919050565b6000612c9182611f42565b9150612c9c83611f42565b9250827fffffffffffffffffffffffffffffffffffffffffffffffffffffffffffffffff03821115612cd157612cd0612ba2565b5b828201905092915050565b7f507572636861736520776f756c6420657863656564206d617820737570706c7960008201527f206f662046697368000000000000000000000000000000000000000000000000602082015250565b6000612d38602883612264565b9150612d4382612cdc565b604082019050919050565b60006020820190508181036000830152612d6781612d2b565b9050919050565b7f45746865722076616c7565206973206e6f7420636f7272656374000000000000600082015250565b6000612da4601a83612264565b9150612daf82612d6e565b602082019050919050565b60006020820190508181036000830152612dd381612d97565b9050919050565b7f4669736820636f756e742073686f756c64203e20300000000000000000000000600082015250565b6000612e10601583612264565b9150612e1b82612dda565b602082019050919050565b60006020820190508181036000830152612e3f81612e03565b9050919050565b7f455243313135353a2063616c6c6572206973206e6f74206f776e6572206e6f7260008201527f20617070726f7665640000000000000000000000000000000000000000000000602082015250565b6000612ea2602983612264565b9150612ead82612e46565b604082019050919050565b60006020820190508181036000830152612ed181612e95565b9050919050565b7f4f776e61626c653a206e6577206f776e657220697320746865207a65726f206160008201527f6464726573730000000000000000000000000000000000000000000000000000602082015250565b6000612f34602683612264565b9150612f3f82612ed8565b604082019050919050565b60006020820190508181036000830152612f6381612f27565b9050919050565b7f455243313135353a2069647320616e6420616d6f756e7473206c656e6774682060008201527f6d69736d61746368000000000000000000000000000000000000000000000000602082015250565b6000612fc6602883612264565b9150612fd182612f6a565b604082019050919050565b60006020820190508181036000830152612ff581612fb9565b9050919050565b7f455243313135353a207472616e7366657220746f20746865207a65726f20616460008201527f6472657373000000000000000000000000000000000000000000000000000000602082015250565b6000613058602583612264565b915061306382612ffc565b604082019050919050565b600060208201905081810360008301526130878161304b565b9050919050565b7f455243313135353a20696e73756666696369656e742062616c616e636520666f60008201527f72207472616e7366657200000000000000000000000000000000000000000000602082015250565b60006130ea602a83612264565b91506130f58261308e565b604082019050919050565b60006020820190508181036000830152613119816130dd565b9050919050565b6000604082019050818103600083015261313a81856126d6565b9050818103602083015261314e81846126d6565b90509392505050565b7f455243313135353a2073657474696e6720617070726f76616c2073746174757360008201527f20666f722073656c660000000000000000000000000000000000000000000000602082015250565b60006131b3602983612264565b91506131be82613157565b604082019050919050565b600060208201905081810360008301526131e2816131a6565b9050919050565b7f455243313135353a206d696e7420746f20746865207a65726f2061646472657360008201527f7300000000000000000000000000000000000000000000000000000000000000602082015250565b6000613245602183612264565b9150613250826131e9565b604082019050919050565b6000602082019050818103600083015261327481613238565b9050919050565b60006040820190506132906000830185611fb8565b61329d6020830184611fb8565b9392505050565b600081519050919050565b600082825260208201905092915050565b60006132cb826132a4565b6132d581856132af565b93506132e5818560208601612275565b6132ee816120a7565b840191505092915050565b600060a08201905061330e6000830188612756565b61331b6020830187612756565b818103604083015261332d81866126d6565b9050818103606083015261334181856126d6565b9050818103608083015261335581846132c0565b90509695505050505050565b6000815190506133708161200e565b92915050565b60006020828403121561338c5761338b611eda565b5b600061339a84828501613361565b91505092915050565b60008160e01c9050919050565b600060033d11156133cf5760046000803e6133cc6000516133a3565b90505b90565b600060443d10156133e257613465565b6133ea611ed0565b60043d036004823e80513d602482011167ffffffffffffffff82111715613412575050613465565b808201805167ffffffffffffffff8111156134305750505050613465565b80602083010160043d03850181111561344d575050505050613465565b61345c826020018501866120e7565b82955050505050505b90565b7f455243313135353a207472616e7366657220746f206e6f6e204552433131353560008201527f526563656976657220696d706c656d656e746572000000000000000000000000602082015250565b60006134c4603483612264565b91506134cf82613468565b604082019050919050565b600060208201905081810360008301526134f3816134b7565b9050919050565b7f455243313135353a204552433131353552656365697665722072656a6563746560008201527f6420746f6b656e73000000000000000000000000000000000000000000000000602082015250565b6000613556602883612264565b9150613561826134fa565b604082019050919050565b6000602082019050818103600083015261358581613549565b9050919050565b600060a0820190506135a16000830188612756565b6135ae6020830187612756565b6135bb6040830186611fb8565b6135c86060830185611fb8565b81810360808301526135da81846132c0565b9050969550505050505056fea26469706673582212208eaf1a0dbd6482f2c240979ff104526d580b6c9570aed7a088aa1c23a964c9f164736f6c634300080c0033",
  "immutableReferences": {
    "2057": [
      {
        "length": 32,
        "start": 2640
      },
      {
        "length": 32,
        "start": 3176
      }
    ],
    "2059": [
      {
        "length": 32,
        "start": 2468
      },
      {
        "length": 32,
        "start": 2885
      },
      {
        "length": 32,
        "start": 3062
      },
      {
        "length": 32,
        "start": 3424
      }
    ]
  },
  "source": "// SPDX-License-Identifier: MIT\r\npragma solidity >=0.6.0 <0.9.0;\r\n\r\n//FishToken.deployed().then(function(instance){return instance.reserveFish(1);})\r\n \r\nimport \"@openzeppelin/contracts/token/ERC1155/ERC1155.sol\";\r\nimport \"@openzeppelin/contracts/access/Ownable.sol\";\r\nimport \"@openzeppelin/contracts/utils/math/SafeMath.sol\";\r\n \r\ncontract FishToken is ERC1155, Ownable {\r\n    using SafeMath for uint256;\r\n \r\n    uint256 public immutable pricePerFish;\r\n    uint256 public immutable maxFish;\r\n    uint256 public totalSupply;\r\n    bool public isSaleActive;\r\n    \r\n    address private immutable reserveAddress;\r\n \r\n    constructor(address _reserveAddress) public ERC1155(\"Fish\") {\r\n        pricePerFish = 0.029 * 10 ** 18;\r\n        maxFish = 1000;\r\n        totalSupply = 1;\r\n        reserveAddress = _reserveAddress;\r\n    }\r\n \r\n    function flipSaleState() public onlyOwner {\r\n        isSaleActive = !isSaleActive;\r\n    }\r\n \r\n    function setURI(string memory URI) public onlyOwner {\r\n        _setURI(URI);\r\n    }\r\n \r\n    function reserveFish(uint256 count) public onlyOwner {   \r\n        require(totalSupply < 100);\r\n        uint256 mintIndex = 1;\r\n        if (totalSupply < maxFish) {\r\n            _mint(msg.sender, mintIndex, count, \"\");\r\n            totalSupply ++;\r\n        }\r\n    }\r\n \r\n    function mintFish(uint256 count) public payable {\r\n        require(isSaleActive, \"Sale is not active\");\r\n        require(totalSupply+1 <= maxFish, \"Purchase would exceed max supply of Fish\");\r\n        require(pricePerFish == msg.value, \"Ether value is not correct\");\r\n        require(count > 0, \"Fish count should > 0\");\r\n        \r\n        payable(owner()).transfer(msg.value);\r\n \r\n        uint256 mintIndex = 1; //totalSupply;\r\n        if (totalSupply < maxFish) {\r\n            _mint(msg.sender, mintIndex, count, \"\");\r\n            totalSupply ++;\r\n        }\r\n    }\r\n}",
  "sourcePath": "C:\\projects\\NFT Projects\\NFT-GuakGuakToken\\contracts\\FishToken.sol",
  "compiler": {
    "name": "solc",
    "version": "0.8.12+commit.f00d7308.Emscripten.clang"
  },
  "schemaVersion": "3.4.6",
  "updatedAt": "2022-04-05T15:19:39.449Z",
  "networkType": "ethereum",
  "devdoc": {
    "kind": "dev",
    "methods": {
      "balanceOf(address,uint256)": {
        "details": "See {IERC1155-balanceOf}. Requirements: - `account` cannot be the zero address."
      },
      "balanceOfBatch(address[],uint256[])": {
        "details": "See {IERC1155-balanceOfBatch}. Requirements: - `accounts` and `ids` must have the same length."
      },
      "isApprovedForAll(address,address)": {
        "details": "See {IERC1155-isApprovedForAll}."
      },
      "owner()": {
        "details": "Returns the address of the current owner."
      },
      "renounceOwnership()": {
        "details": "Leaves the contract without owner. It will not be possible to call `onlyOwner` functions anymore. Can only be called by the current owner. NOTE: Renouncing ownership will leave the contract without an owner, thereby removing any functionality that is only available to the owner."
      },
      "safeBatchTransferFrom(address,address,uint256[],uint256[],bytes)": {
        "details": "See {IERC1155-safeBatchTransferFrom}."
      },
      "safeTransferFrom(address,address,uint256,uint256,bytes)": {
        "details": "See {IERC1155-safeTransferFrom}."
      },
      "setApprovalForAll(address,bool)": {
        "details": "See {IERC1155-setApprovalForAll}."
      },
      "supportsInterface(bytes4)": {
        "details": "See {IERC165-supportsInterface}."
      },
      "transferOwnership(address)": {
        "details": "Transfers ownership of the contract to a new account (`newOwner`). Can only be called by the current owner."
      },
      "uri(uint256)": {
        "details": "See {IERC1155MetadataURI-uri}. This implementation returns the same URI for *all* token types. It relies on the token type ID substitution mechanism https://eips.ethereum.org/EIPS/eip-1155#metadata[defined in the EIP]. Clients calling this function must replace the `\\{id\\}` substring with the actual token type ID."
      }
    },
    "version": 1
  },
  "userdoc": {
    "kind": "user",
    "methods": {},
    "version": 1
  }
}