{
  "contractName": "GuakGuakToken",
  "abi": [
    {
      "inputs": [],
      "stateMutability": "nonpayable",
      "type": "constructor"
    },
    {
      "anonymous": false,
      "inputs": [
        {
          "indexed": true,
          "internalType": "address",
          "name": "account",
          "type": "address"
        },
        {
          "indexed": true,
          "internalType": "address",
          "name": "operator",
          "type": "address"
        },
        {
          "indexed": false,
          "internalType": "bool",
          "name": "approved",
          "type": "bool"
        }
      ],
      "name": "ApprovalForAll",
      "type": "event"
    },
    {
      "anonymous": false,
      "inputs": [
        {
          "indexed": true,
          "internalType": "address",
          "name": "previousOwner",
          "type": "address"
        },
        {
          "indexed": true,
          "internalType": "address",
          "name": "newOwner",
          "type": "address"
        }
      ],
      "name": "OwnershipTransferred",
      "type": "event"
    },
    {
      "anonymous": false,
      "inputs": [
        {
          "indexed": true,
          "internalType": "address",
          "name": "operator",
          "type": "address"
        },
        {
          "indexed": true,
          "internalType": "address",
          "name": "from",
          "type": "address"
        },
        {
          "indexed": true,
          "internalType": "address",
          "name": "to",
          "type": "address"
        },
        {
          "indexed": false,
          "internalType": "uint256[]",
          "name": "ids",
          "type": "uint256[]"
        },
        {
          "indexed": false,
          "internalType": "uint256[]",
          "name": "values",
          "type": "uint256[]"
        }
      ],
      "name": "TransferBatch",
      "type": "event"
    },
    {
      "anonymous": false,
      "inputs": [
        {
          "indexed": true,
          "internalType": "address",
          "name": "operator",
          "type": "address"
        },
        {
          "indexed": true,
          "internalType": "address",
          "name": "from",
          "type": "address"
        },
        {
          "indexed": true,
          "internalType": "address",
          "name": "to",
          "type": "address"
        },
        {
          "indexed": false,
          "internalType": "uint256",
          "name": "id",
          "type": "uint256"
        },
        {
          "indexed": false,
          "internalType": "uint256",
          "name": "value",
          "type": "uint256"
        }
      ],
      "name": "TransferSingle",
      "type": "event"
    },
    {
      "anonymous": false,
      "inputs": [
        {
          "indexed": false,
          "internalType": "string",
          "name": "value",
          "type": "string"
        },
        {
          "indexed": true,
          "internalType": "uint256",
          "name": "id",
          "type": "uint256"
        }
      ],
      "name": "URI",
      "type": "event"
    },
    {
      "inputs": [
        {
          "internalType": "address",
          "name": "account",
          "type": "address"
        },
        {
          "internalType": "uint256",
          "name": "id",
          "type": "uint256"
        }
      ],
      "name": "balanceOf",
      "outputs": [
        {
          "internalType": "uint256",
          "name": "",
          "type": "uint256"
        }
      ],
      "stateMutability": "view",
      "type": "function",
      "constant": true
    },
    {
      "inputs": [
        {
          "internalType": "address[]",
          "name": "accounts",
          "type": "address[]"
        },
        {
          "internalType": "uint256[]",
          "name": "ids",
          "type": "uint256[]"
        }
      ],
      "name": "balanceOfBatch",
      "outputs": [
        {
          "internalType": "uint256[]",
          "name": "",
          "type": "uint256[]"
        }
      ],
      "stateMutability": "view",
      "type": "function",
      "constant": true
    },
    {
      "inputs": [
        {
          "internalType": "address",
          "name": "account",
          "type": "address"
        },
        {
          "internalType": "address",
          "name": "operator",
          "type": "address"
        }
      ],
      "name": "isApprovedForAll",
      "outputs": [
        {
          "internalType": "bool",
          "name": "",
          "type": "bool"
        }
      ],
      "stateMutability": "view",
      "type": "function",
      "constant": true
    },
    {
      "inputs": [],
      "name": "isSaleActive",
      "outputs": [
        {
          "internalType": "bool",
          "name": "",
          "type": "bool"
        }
      ],
      "stateMutability": "view",
      "type": "function",
      "constant": true
    },
    {
      "inputs": [],
      "name": "maxSupply",
      "outputs": [
        {
          "internalType": "uint256",
          "name": "",
          "type": "uint256"
        }
      ],
      "stateMutability": "view",
      "type": "function",
      "constant": true
    },
    {
      "inputs": [],
      "name": "owner",
      "outputs": [
        {
          "internalType": "address",
          "name": "",
          "type": "address"
        }
      ],
      "stateMutability": "view",
      "type": "function",
      "constant": true
    },
    {
      "inputs": [],
      "name": "renounceOwnership",
      "outputs": [],
      "stateMutability": "nonpayable",
      "type": "function"
    },
    {
      "inputs": [
        {
          "internalType": "address",
          "name": "from",
          "type": "address"
        },
        {
          "internalType": "address",
          "name": "to",
          "type": "address"
        },
        {
          "internalType": "uint256[]",
          "name": "ids",
          "type": "uint256[]"
        },
        {
          "internalType": "uint256[]",
          "name": "amounts",
          "type": "uint256[]"
        },
        {
          "internalType": "bytes",
          "name": "data",
          "type": "bytes"
        }
      ],
      "name": "safeBatchTransferFrom",
      "outputs": [],
      "stateMutability": "nonpayable",
      "type": "function"
    },
    {
      "inputs": [
        {
          "internalType": "address",
          "name": "from",
          "type": "address"
        },
        {
          "internalType": "address",
          "name": "to",
          "type": "address"
        },
        {
          "internalType": "uint256",
          "name": "id",
          "type": "uint256"
        },
        {
          "internalType": "uint256",
          "name": "amount",
          "type": "uint256"
        },
        {
          "internalType": "bytes",
          "name": "data",
          "type": "bytes"
        }
      ],
      "name": "safeTransferFrom",
      "outputs": [],
      "stateMutability": "nonpayable",
      "type": "function"
    },
    {
      "inputs": [
        {
          "internalType": "address",
          "name": "operator",
          "type": "address"
        },
        {
          "internalType": "bool",
          "name": "approved",
          "type": "bool"
        }
      ],
      "name": "setApprovalForAll",
      "outputs": [],
      "stateMutability": "nonpayable",
      "type": "function"
    },
    {
      "inputs": [
        {
          "internalType": "bytes4",
          "name": "interfaceId",
          "type": "bytes4"
        }
      ],
      "name": "supportsInterface",
      "outputs": [
        {
          "internalType": "bool",
          "name": "",
          "type": "bool"
        }
      ],
      "stateMutability": "view",
      "type": "function",
      "constant": true
    },
    {
      "inputs": [],
      "name": "totalSupply",
      "outputs": [
        {
          "internalType": "uint256",
          "name": "",
          "type": "uint256"
        }
      ],
      "stateMutability": "view",
      "type": "function",
      "constant": true
    },
    {
      "inputs": [
        {
          "internalType": "address",
          "name": "newOwner",
          "type": "address"
        }
      ],
      "name": "transferOwnership",
      "outputs": [],
      "stateMutability": "nonpayable",
      "type": "function"
    },
    {
      "inputs": [],
      "name": "unitPrice",
      "outputs": [
        {
          "internalType": "uint256",
          "name": "",
          "type": "uint256"
        }
      ],
      "stateMutability": "view",
      "type": "function",
      "constant": true
    },
    {
      "inputs": [
        {
          "internalType": "uint256",
          "name": "",
          "type": "uint256"
        }
      ],
      "name": "uri",
      "outputs": [
        {
          "internalType": "string",
          "name": "",
          "type": "string"
        }
      ],
      "stateMutability": "view",
      "type": "function",
      "constant": true
    },
    {
      "inputs": [],
      "name": "flipSaleState",
      "outputs": [],
      "stateMutability": "nonpayable",
      "type": "function"
    },
    {
      "inputs": [
        {
          "internalType": "string",
          "name": "URI",
          "type": "string"
        }
      ],
      "name": "setURI",
      "outputs": [],
      "stateMutability": "nonpayable",
      "type": "function"
    },
    {
      "inputs": [
        {
          "internalType": "uint256",
          "name": "count",
          "type": "uint256"
        }
      ],
      "name": "reserve",
      "outputs": [],
      "stateMutability": "nonpayable",
      "type": "function"
    },
    {
      "inputs": [
        {
          "internalType": "uint256",
          "name": "count",
          "type": "uint256"
        }
      ],
      "name": "mint",
      "outputs": [],
      "stateMutability": "payable",
      "type": "function",
      "payable": true
    }
  ],
  "bytecode": "0x60c06040523480156200001157600080fd5b506040518060400160405280600881526020017f4775616b4775616b0000000000000000000000000000000000000000000000008152506200005981620000a260201b60201c565b506200007a6200006e620000be60201b60201c565b620000c660201b60201c565b66670758aa7c800060808181525050620186a060a081815250506064600481905550620002a1565b8060029080519060200190620000ba9291906200018c565b5050565b600033905090565b6000600360009054906101000a900473ffffffffffffffffffffffffffffffffffffffff16905081600360006101000a81548173ffffffffffffffffffffffffffffffffffffffff021916908373ffffffffffffffffffffffffffffffffffffffff1602179055508173ffffffffffffffffffffffffffffffffffffffff168173ffffffffffffffffffffffffffffffffffffffff167f8be0079c531659141344cd1fd0a4f28419497f9722a3daafe3b4186f6b6457e060405160405180910390a35050565b8280546200019a906200026b565b90600052602060002090601f016020900481019282620001be57600085556200020a565b82601f10620001d957805160ff19168380011785556200020a565b828001600101855582156200020a579182015b8281111562000209578251825591602001919060010190620001ec565b5b5090506200021991906200021d565b5090565b5b80821115620002385760008160009055506001016200021e565b5090565b7f4e487b7100000000000000000000000000000000000000000000000000000000600052602260045260246000fd5b600060028204905060018216806200028457607f821691505b602082108114156200029b576200029a6200023c565b5b50919050565b60805160a051613640620002e360003960008181610abe01528181610b9701528181610d020152610d78015260008181610c090152610d9c01526136406000f3fe6080604052600436106101135760003560e01c8063715018a6116100a0578063d5abeb0111610064578063d5abeb011461037b578063e73faa2d146103a6578063e985e9c5146103d1578063f242432a1461040e578063f2fde38b1461043757610113565b8063715018a6146102cb578063819b25ba146102e25780638da5cb5b1461030b578063a0712d6814610336578063a22cb4651461035257610113565b806318160ddd116100e757806318160ddd146101f85780632eb2c2d61461022357806334918dfd1461024c5780634e1273f414610263578063564566a8146102a057610113565b8062fdd58e1461011857806301ffc9a71461015557806302fe5305146101925780630e89341c146101bb575b600080fd5b34801561012457600080fd5b5061013f600480360381019061013a9190611f76565b610460565b60405161014c9190611fc5565b60405180910390f35b34801561016157600080fd5b5061017c60048036038101906101779190612038565b610529565b6040516101899190612080565b60405180910390f35b34801561019e57600080fd5b506101b960048036038101906101b491906121e1565b61060b565b005b3480156101c757600080fd5b506101e260048036038101906101dd919061222a565b610693565b6040516101ef91906122df565b60405180910390f35b34801561020457600080fd5b5061020d610727565b60405161021a9190611fc5565b60405180910390f35b34801561022f57600080fd5b5061024a6004803603810190610245919061246a565b61072d565b005b34801561025857600080fd5b506102616107ce565b005b34801561026f57600080fd5b5061028a600480360381019061028591906125fc565b610876565b6040516102979190612732565b60405180910390f35b3480156102ac57600080fd5b506102b561098f565b6040516102c29190612080565b60405180910390f35b3480156102d757600080fd5b506102e06109a2565b005b3480156102ee57600080fd5b506103096004803603810190610304919061222a565b610a2a565b005b34801561031757600080fd5b50610320610b1c565b60405161032d9190612763565b60405180910390f35b610350600480360381019061034b919061222a565b610b46565b005b34801561035e57600080fd5b50610379600480360381019061037491906127aa565b610d60565b005b34801561038757600080fd5b50610390610d76565b60405161039d9190611fc5565b60405180910390f35b3480156103b257600080fd5b506103bb610d9a565b6040516103c89190611fc5565b60405180910390f35b3480156103dd57600080fd5b506103f860048036038101906103f391906127ea565b610dbe565b6040516104059190612080565b60405180910390f35b34801561041a57600080fd5b506104356004803603810190610430919061282a565b610e52565b005b34801561044357600080fd5b5061045e600480360381019061045991906128c1565b610ef3565b005b60008073ffffffffffffffffffffffffffffffffffffffff168373ffffffffffffffffffffffffffffffffffffffff1614156104d1576040517f08c379a00000000000000000000000000000000000000000000000000000000081526004016104c890612960565b60405180910390fd5b60008083815260200190815260200160002060008473ffffffffffffffffffffffffffffffffffffffff1673ffffffffffffffffffffffffffffffffffffffff16815260200190815260200160002054905092915050565b60007fd9b67a26000000000000000000000000000000000000000000000000000000007bffffffffffffffffffffffffffffffffffffffffffffffffffffffff1916827bffffffffffffffffffffffffffffffffffffffffffffffffffffffff191614806105f457507f0e89341c000000000000000000000000000000000000000000000000000000007bffffffffffffffffffffffffffffffffffffffffffffffffffffffff1916827bffffffffffffffffffffffffffffffffffffffffffffffffffffffff1916145b80610604575061060382610feb565b5b9050919050565b610613611055565b73ffffffffffffffffffffffffffffffffffffffff16610631610b1c565b73ffffffffffffffffffffffffffffffffffffffff1614610687576040517f08c379a000000000000000000000000000000000000000000000000000000000815260040161067e906129cc565b60405180910390fd5b6106908161105d565b50565b6060600280546106a290612a1b565b80601f01602080910402602001604051908101604052809291908181526020018280546106ce90612a1b565b801561071b5780601f106106f05761010080835404028352916020019161071b565b820191906000526020600020905b8154815290600101906020018083116106fe57829003601f168201915b50505050509050919050565b60045481565b610735611055565b73ffffffffffffffffffffffffffffffffffffffff168573ffffffffffffffffffffffffffffffffffffffff16148061077b575061077a85610775611055565b610dbe565b5b6107ba576040517f08c379a00000000000000000000000000000000000000000000000000000000081526004016107b190612abf565b60405180910390fd5b6107c78585858585611077565b5050505050565b6107d6611055565b73ffffffffffffffffffffffffffffffffffffffff166107f4610b1c565b73ffffffffffffffffffffffffffffffffffffffff161461084a576040517f08c379a0000000000000000000000000000000000000000000000000000000008152600401610841906129cc565b60405180910390fd5b600560009054906101000a900460ff1615600560006101000a81548160ff021916908315150217905550565b606081518351146108bc576040517f08c379a00000000000000000000000000000000000000000000000000000000081526004016108b390612b51565b60405180910390fd5b6000835167ffffffffffffffff8111156108d9576108d86120b6565b5b6040519080825280602002602001820160405280156109075781602001602082028036833780820191505090505b50905060005b84518110156109845761095485828151811061092c5761092b612b71565b5b602002602001015185838151811061094757610946612b71565b5b6020026020010151610460565b82828151811061096757610966612b71565b5b6020026020010181815250508061097d90612bcf565b905061090d565b508091505092915050565b600560009054906101000a900460ff1681565b6109aa611055565b73ffffffffffffffffffffffffffffffffffffffff166109c8610b1c565b73ffffffffffffffffffffffffffffffffffffffff1614610a1e576040517f08c379a0000000000000000000000000000000000000000000000000000000008152600401610a15906129cc565b60405180910390fd5b610a28600061138b565b565b610a32611055565b73ffffffffffffffffffffffffffffffffffffffff16610a50610b1c565b73ffffffffffffffffffffffffffffffffffffffff1614610aa6576040517f08c379a0000000000000000000000000000000000000000000000000000000008152600401610a9d906129cc565b60405180910390fd5b606460045410610ab557600080fd5b600060045490507f0000000000000000000000000000000000000000000000000000000000000000811015610b1857610aff33828460405180602001604052806000815250611451565b60046000815480929190610b1290612bcf565b91905055505b5050565b6000600360009054906101000a900473ffffffffffffffffffffffffffffffffffffffff16905090565b600560009054906101000a900460ff16610b95576040517f08c379a0000000000000000000000000000000000000000000000000000000008152600401610b8c90612c64565b60405180910390fd5b7f00000000000000000000000000000000000000000000000000000000000000006001600454610bc59190612c84565b1115610c06576040517f08c379a0000000000000000000000000000000000000000000000000000000008152600401610bfd90612d4c565b60405180910390fd5b347f000000000000000000000000000000000000000000000000000000000000000014610c68576040517f08c379a0000000000000000000000000000000000000000000000000000000008152600401610c5f90612dde565b60405180910390fd5b60008111610cab576040517f08c379a0000000000000000000000000000000000000000000000000000000008152600401610ca290612e4a565b60405180910390fd5b610cb3610b1c565b73ffffffffffffffffffffffffffffffffffffffff166108fc349081150290604051600060405180830381858888f19350505050158015610cf8573d6000803e3d6000fd5b50600060045490507f0000000000000000000000000000000000000000000000000000000000000000811015610d5c57610d4333828460405180602001604052806000815250611451565b60046000815480929190610d5690612bcf565b91905055505b5050565b610d72610d6b611055565b83836115e7565b5050565b7f000000000000000000000000000000000000000000000000000000000000000081565b7f000000000000000000000000000000000000000000000000000000000000000081565b6000600160008473ffffffffffffffffffffffffffffffffffffffff1673ffffffffffffffffffffffffffffffffffffffff16815260200190815260200160002060008373ffffffffffffffffffffffffffffffffffffffff1673ffffffffffffffffffffffffffffffffffffffff16815260200190815260200160002060009054906101000a900460ff16905092915050565b610e5a611055565b73ffffffffffffffffffffffffffffffffffffffff168573ffffffffffffffffffffffffffffffffffffffff161480610ea05750610e9f85610e9a611055565b610dbe565b5b610edf576040517f08c379a0000000000000000000000000000000000000000000000000000000008152600401610ed690612edc565b60405180910390fd5b610eec8585858585611754565b5050505050565b610efb611055565b73ffffffffffffffffffffffffffffffffffffffff16610f19610b1c565b73ffffffffffffffffffffffffffffffffffffffff1614610f6f576040517f08c379a0000000000000000000000000000000000000000000000000000000008152600401610f66906129cc565b60405180910390fd5b600073ffffffffffffffffffffffffffffffffffffffff168173ffffffffffffffffffffffffffffffffffffffff161415610fdf576040517f08c379a0000000000000000000000000000000000000000000000000000000008152600401610fd690612f6e565b60405180910390fd5b610fe88161138b565b50565b60007f01ffc9a7000000000000000000000000000000000000000000000000000000007bffffffffffffffffffffffffffffffffffffffffffffffffffffffff1916827bffffffffffffffffffffffffffffffffffffffffffffffffffffffff1916149050919050565b600033905090565b8060029080519060200190611073929190611e2b565b5050565b81518351146110bb576040517f08c379a00000000000000000000000000000000000000000000000000000000081526004016110b290613000565b60405180910390fd5b600073ffffffffffffffffffffffffffffffffffffffff168473ffffffffffffffffffffffffffffffffffffffff16141561112b576040517f08c379a000000000000000000000000000000000000000000000000000000000815260040161112290613092565b60405180910390fd5b6000611135611055565b90506111458187878787876119d6565b60005b84518110156112f657600085828151811061116657611165612b71565b5b60200260200101519050600085838151811061118557611184612b71565b5b60200260200101519050600080600084815260200190815260200160002060008b73ffffffffffffffffffffffffffffffffffffffff1673ffffffffffffffffffffffffffffffffffffffff16815260200190815260200160002054905081811015611226576040517f08c379a000000000000000000000000000000000000000000000000000000000815260040161121d90613124565b60405180910390fd5b81810360008085815260200190815260200160002060008c73ffffffffffffffffffffffffffffffffffffffff1673ffffffffffffffffffffffffffffffffffffffff168152602001908152602001600020819055508160008085815260200190815260200160002060008b73ffffffffffffffffffffffffffffffffffffffff1673ffffffffffffffffffffffffffffffffffffffff16815260200190815260200160002060008282546112db9190612c84565b92505081905550505050806112ef90612bcf565b9050611148565b508473ffffffffffffffffffffffffffffffffffffffff168673ffffffffffffffffffffffffffffffffffffffff168273ffffffffffffffffffffffffffffffffffffffff167f4a39dc06d4c0dbc64b70af90fd698a233a518aa5d07e595d983b8c0526c8f7fb878760405161136d929190613144565b60405180910390a46113838187878787876119de565b505050505050565b6000600360009054906101000a900473ffffffffffffffffffffffffffffffffffffffff16905081600360006101000a81548173ffffffffffffffffffffffffffffffffffffffff021916908373ffffffffffffffffffffffffffffffffffffffff1602179055508173ffffffffffffffffffffffffffffffffffffffff168173ffffffffffffffffffffffffffffffffffffffff167f8be0079c531659141344cd1fd0a4f28419497f9722a3daafe3b4186f6b6457e060405160405180910390a35050565b600073ffffffffffffffffffffffffffffffffffffffff168473ffffffffffffffffffffffffffffffffffffffff1614156114c1576040517f08c379a00000000000000000000000000000000000000000000000000000000081526004016114b8906131ed565b60405180910390fd5b60006114cb611055565b90506114ec816000876114dd88611bb6565b6114e688611bb6565b876119d6565b8260008086815260200190815260200160002060008773ffffffffffffffffffffffffffffffffffffffff1673ffffffffffffffffffffffffffffffffffffffff168152602001908152602001600020600082825461154b9190612c84565b925050819055508473ffffffffffffffffffffffffffffffffffffffff16600073ffffffffffffffffffffffffffffffffffffffff168273ffffffffffffffffffffffffffffffffffffffff167fc3d58168c5ae7397731d063d5bbf3d657854427343f4c083240f7aacaa2d0f6287876040516115c992919061320d565b60405180910390a46115e081600087878787611c30565b5050505050565b8173ffffffffffffffffffffffffffffffffffffffff168373ffffffffffffffffffffffffffffffffffffffff161415611656576040517f08c379a000000000000000000000000000000000000000000000000000000000815260040161164d906132a8565b60405180910390fd5b80600160008573ffffffffffffffffffffffffffffffffffffffff1673ffffffffffffffffffffffffffffffffffffffff16815260200190815260200160002060008473ffffffffffffffffffffffffffffffffffffffff1673ffffffffffffffffffffffffffffffffffffffff16815260200190815260200160002060006101000a81548160ff0219169083151502179055508173ffffffffffffffffffffffffffffffffffffffff168373ffffffffffffffffffffffffffffffffffffffff167f17307eab39ab6107e8899845ad3d59bd9653f200f220920489ca2b5937696c31836040516117479190612080565b60405180910390a3505050565b600073ffffffffffffffffffffffffffffffffffffffff168473ffffffffffffffffffffffffffffffffffffffff1614156117c4576040517f08c379a00000000000000000000000000000000000000000000000000000000081526004016117bb90613092565b60405180910390fd5b60006117ce611055565b90506117ee8187876117df88611bb6565b6117e888611bb6565b876119d6565b600080600086815260200190815260200160002060008873ffffffffffffffffffffffffffffffffffffffff1673ffffffffffffffffffffffffffffffffffffffff16815260200190815260200160002054905083811015611885576040517f08c379a000000000000000000000000000000000000000000000000000000000815260040161187c90613124565b60405180910390fd5b83810360008087815260200190815260200160002060008973ffffffffffffffffffffffffffffffffffffffff1673ffffffffffffffffffffffffffffffffffffffff168152602001908152602001600020819055508360008087815260200190815260200160002060008873ffffffffffffffffffffffffffffffffffffffff1673ffffffffffffffffffffffffffffffffffffffff168152602001908152602001600020600082825461193a9190612c84565b925050819055508573ffffffffffffffffffffffffffffffffffffffff168773ffffffffffffffffffffffffffffffffffffffff168373ffffffffffffffffffffffffffffffffffffffff167fc3d58168c5ae7397731d063d5bbf3d657854427343f4c083240f7aacaa2d0f6288886040516119b792919061320d565b60405180910390a46119cd828888888888611c30565b50505050505050565b505050505050565b6119fd8473ffffffffffffffffffffffffffffffffffffffff16611e08565b15611bae578373ffffffffffffffffffffffffffffffffffffffff1663bc197c8187878686866040518663ffffffff1660e01b8152600401611a4395949392919061331d565b6020604051808303816000875af1925050508015611a7f57506040513d601f19601f82011682018060405250810190611a7c919061339a565b60015b611b2557611a8b6133d4565b806308c379a01415611ae85750611aa06133f6565b80611aab5750611aea565b806040517f08c379a0000000000000000000000000000000000000000000000000000000008152600401611adf91906122df565b60405180910390fd5b505b6040517f08c379a0000000000000000000000000000000000000000000000000000000008152600401611b1c906134fe565b60405180910390fd5b63bc197c8160e01b7bffffffffffffffffffffffffffffffffffffffffffffffffffffffff1916817bffffffffffffffffffffffffffffffffffffffffffffffffffffffff191614611bac576040517f08c379a0000000000000000000000000000000000000000000000000000000008152600401611ba390613590565b60405180910390fd5b505b505050505050565b60606000600167ffffffffffffffff811115611bd557611bd46120b6565b5b604051908082528060200260200182016040528015611c035781602001602082028036833780820191505090505b5090508281600081518110611c1b57611c1a612b71565b5b60200260200101818152505080915050919050565b611c4f8473ffffffffffffffffffffffffffffffffffffffff16611e08565b15611e00578373ffffffffffffffffffffffffffffffffffffffff1663f23a6e6187878686866040518663ffffffff1660e01b8152600401611c959594939291906135b0565b6020604051808303816000875af1925050508015611cd157506040513d601f19601f82011682018060405250810190611cce919061339a565b60015b611d7757611cdd6133d4565b806308c379a01415611d3a5750611cf26133f6565b80611cfd5750611d3c565b806040517f08c379a0000000000000000000000000000000000000000000000000000000008152600401611d3191906122df565b60405180910390fd5b505b6040517f08c379a0000000000000000000000000000000000000000000000000000000008152600401611d6e906134fe565b60405180910390fd5b63f23a6e6160e01b7bffffffffffffffffffffffffffffffffffffffffffffffffffffffff1916817bffffffffffffffffffffffffffffffffffffffffffffffffffffffff191614611dfe576040517f08c379a0000000000000000000000000000000000000000000000000000000008152600401611df590613590565b60405180910390fd5b505b505050505050565b6000808273ffffffffffffffffffffffffffffffffffffffff163b119050919050565b828054611e3790612a1b565b90600052602060002090601f016020900481019282611e595760008555611ea0565b82601f10611e7257805160ff1916838001178555611ea0565b82800160010185558215611ea0579182015b82811115611e9f578251825591602001919060010190611e84565b5b509050611ead9190611eb1565b5090565b5b80821115611eca576000816000905550600101611eb2565b5090565b6000604051905090565b600080fd5b600080fd5b600073ffffffffffffffffffffffffffffffffffffffff82169050919050565b6000611f0d82611ee2565b9050919050565b611f1d81611f02565b8114611f2857600080fd5b50565b600081359050611f3a81611f14565b92915050565b6000819050919050565b611f5381611f40565b8114611f5e57600080fd5b50565b600081359050611f7081611f4a565b92915050565b60008060408385031215611f8d57611f8c611ed8565b5b6000611f9b85828601611f2b565b9250506020611fac85828601611f61565b9150509250929050565b611fbf81611f40565b82525050565b6000602082019050611fda6000830184611fb6565b92915050565b60007fffffffff0000000000000000000000000000000000000000000000000000000082169050919050565b61201581611fe0565b811461202057600080fd5b50565b6000813590506120328161200c565b92915050565b60006020828403121561204e5761204d611ed8565b5b600061205c84828501612023565b91505092915050565b60008115159050919050565b61207a81612065565b82525050565b60006020820190506120956000830184612071565b92915050565b600080fd5b600080fd5b6000601f19601f8301169050919050565b7f4e487b7100000000000000000000000000000000000000000000000000000000600052604160045260246000fd5b6120ee826120a5565b810181811067ffffffffffffffff8211171561210d5761210c6120b6565b5b80604052505050565b6000612120611ece565b905061212c82826120e5565b919050565b600067ffffffffffffffff82111561214c5761214b6120b6565b5b612155826120a5565b9050602081019050919050565b82818337600083830152505050565b600061218461217f84612131565b612116565b9050828152602081018484840111156121a05761219f6120a0565b5b6121ab848285612162565b509392505050565b600082601f8301126121c8576121c761209b565b5b81356121d8848260208601612171565b91505092915050565b6000602082840312156121f7576121f6611ed8565b5b600082013567ffffffffffffffff81111561221557612214611edd565b5b612221848285016121b3565b91505092915050565b6000602082840312156122405761223f611ed8565b5b600061224e84828501611f61565b91505092915050565b600081519050919050565b600082825260208201905092915050565b60005b83811015612291578082015181840152602081019050612276565b838111156122a0576000848401525b50505050565b60006122b182612257565b6122bb8185612262565b93506122cb818560208601612273565b6122d4816120a5565b840191505092915050565b600060208201905081810360008301526122f981846122a6565b905092915050565b600067ffffffffffffffff82111561231c5761231b6120b6565b5b602082029050602081019050919050565b600080fd5b600061234561234084612301565b612116565b905080838252602082019050602084028301858111156123685761236761232d565b5b835b81811015612391578061237d8882611f61565b84526020840193505060208101905061236a565b5050509392505050565b600082601f8301126123b0576123af61209b565b5b81356123c0848260208601612332565b91505092915050565b600067ffffffffffffffff8211156123e4576123e36120b6565b5b6123ed826120a5565b9050602081019050919050565b600061240d612408846123c9565b612116565b905082815260208101848484011115612429576124286120a0565b5b612434848285612162565b509392505050565b600082601f8301126124515761245061209b565b5b81356124618482602086016123fa565b91505092915050565b600080600080600060a0868803121561248657612485611ed8565b5b600061249488828901611f2b565b95505060206124a588828901611f2b565b945050604086013567ffffffffffffffff8111156124c6576124c5611edd565b5b6124d28882890161239b565b935050606086013567ffffffffffffffff8111156124f3576124f2611edd565b5b6124ff8882890161239b565b925050608086013567ffffffffffffffff8111156125205761251f611edd565b5b61252c8882890161243c565b9150509295509295909350565b600067ffffffffffffffff821115612554576125536120b6565b5b602082029050602081019050919050565b600061257861257384612539565b612116565b9050808382526020820190506020840283018581111561259b5761259a61232d565b5b835b818110156125c457806125b08882611f2b565b84526020840193505060208101905061259d565b5050509392505050565b600082601f8301126125e3576125e261209b565b5b81356125f3848260208601612565565b91505092915050565b6000806040838503121561261357612612611ed8565b5b600083013567ffffffffffffffff81111561263157612630611edd565b5b61263d858286016125ce565b925050602083013567ffffffffffffffff81111561265e5761265d611edd565b5b61266a8582860161239b565b9150509250929050565b600081519050919050565b600082825260208201905092915050565b6000819050602082019050919050565b6126a981611f40565b82525050565b60006126bb83836126a0565b60208301905092915050565b6000602082019050919050565b60006126df82612674565b6126e9818561267f565b93506126f483612690565b8060005b8381101561272557815161270c88826126af565b9750612717836126c7565b9250506001810190506126f8565b5085935050505092915050565b6000602082019050818103600083015261274c81846126d4565b905092915050565b61275d81611f02565b82525050565b60006020820190506127786000830184612754565b92915050565b61278781612065565b811461279257600080fd5b50565b6000813590506127a48161277e565b92915050565b600080604083850312156127c1576127c0611ed8565b5b60006127cf85828601611f2b565b92505060206127e085828601612795565b9150509250929050565b6000806040838503121561280157612800611ed8565b5b600061280f85828601611f2b565b925050602061282085828601611f2b565b9150509250929050565b600080600080600060a0868803121561284657612845611ed8565b5b600061285488828901611f2b565b955050602061286588828901611f2b565b945050604061287688828901611f61565b935050606061288788828901611f61565b925050608086013567ffffffffffffffff8111156128a8576128a7611edd565b5b6128b48882890161243c565b9150509295509295909350565b6000602082840312156128d7576128d6611ed8565b5b60006128e584828501611f2b565b91505092915050565b7f455243313135353a2062616c616e636520717565727920666f7220746865207a60008201527f65726f2061646472657373000000000000000000000000000000000000000000602082015250565b600061294a602b83612262565b9150612955826128ee565b604082019050919050565b600060208201905081810360008301526129798161293d565b9050919050565b7f4f776e61626c653a2063616c6c6572206973206e6f7420746865206f776e6572600082015250565b60006129b6602083612262565b91506129c182612980565b602082019050919050565b600060208201905081810360008301526129e5816129a9565b9050919050565b7f4e487b7100000000000000000000000000000000000000000000000000000000600052602260045260246000fd5b60006002820490506001821680612a3357607f821691505b60208210811415612a4757612a466129ec565b5b50919050565b7f455243313135353a207472616e736665722063616c6c6572206973206e6f742060008201527f6f776e6572206e6f7220617070726f7665640000000000000000000000000000602082015250565b6000612aa9603283612262565b9150612ab482612a4d565b604082019050919050565b60006020820190508181036000830152612ad881612a9c565b9050919050565b7f455243313135353a206163636f756e747320616e6420696473206c656e67746860008201527f206d69736d617463680000000000000000000000000000000000000000000000602082015250565b6000612b3b602983612262565b9150612b4682612adf565b604082019050919050565b60006020820190508181036000830152612b6a81612b2e565b9050919050565b7f4e487b7100000000000000000000000000000000000000000000000000000000600052603260045260246000fd5b7f4e487b7100000000000000000000000000000000000000000000000000000000600052601160045260246000fd5b6000612bda82611f40565b91507fffffffffffffffffffffffffffffffffffffffffffffffffffffffffffffffff821415612c0d57612c0c612ba0565b5b600182019050919050565b7f53616c65206973206e6f74206163746976650000000000000000000000000000600082015250565b6000612c4e601283612262565b9150612c5982612c18565b602082019050919050565b60006020820190508181036000830152612c7d81612c41565b9050919050565b6000612c8f82611f40565b9150612c9a83611f40565b9250827fffffffffffffffffffffffffffffffffffffffffffffffffffffffffffffffff03821115612ccf57612cce612ba0565b5b828201905092915050565b7f507572636861736520776f756c6420657863656564206d617820737570706c7960008201527f206f66204775616b4775616b0000000000000000000000000000000000000000602082015250565b6000612d36602c83612262565b9150612d4182612cda565b604082019050919050565b60006020820190508181036000830152612d6581612d29565b9050919050565b7f45746865722076616c756520697320746f6f20736d616c6c20746f206275792060008201527f746865204775616b4775616b0000000000000000000000000000000000000000602082015250565b6000612dc8602c83612262565b9150612dd382612d6c565b604082019050919050565b60006020820190508181036000830152612df781612dbb565b9050919050565b7f4775616b4775616b20636f756e742073686f756c64203e203000000000000000600082015250565b6000612e34601983612262565b9150612e3f82612dfe565b602082019050919050565b60006020820190508181036000830152612e6381612e27565b9050919050565b7f455243313135353a2063616c6c6572206973206e6f74206f776e6572206e6f7260008201527f20617070726f7665640000000000000000000000000000000000000000000000602082015250565b6000612ec6602983612262565b9150612ed182612e6a565b604082019050919050565b60006020820190508181036000830152612ef581612eb9565b9050919050565b7f4f776e61626c653a206e6577206f776e657220697320746865207a65726f206160008201527f6464726573730000000000000000000000000000000000000000000000000000602082015250565b6000612f58602683612262565b9150612f6382612efc565b604082019050919050565b60006020820190508181036000830152612f8781612f4b565b9050919050565b7f455243313135353a2069647320616e6420616d6f756e7473206c656e6774682060008201527f6d69736d61746368000000000000000000000000000000000000000000000000602082015250565b6000612fea602883612262565b9150612ff582612f8e565b604082019050919050565b6000602082019050818103600083015261301981612fdd565b9050919050565b7f455243313135353a207472616e7366657220746f20746865207a65726f20616460008201527f6472657373000000000000000000000000000000000000000000000000000000602082015250565b600061307c602583612262565b915061308782613020565b604082019050919050565b600060208201905081810360008301526130ab8161306f565b9050919050565b7f455243313135353a20696e73756666696369656e742062616c616e636520666f60008201527f72207472616e7366657200000000000000000000000000000000000000000000602082015250565b600061310e602a83612262565b9150613119826130b2565b604082019050919050565b6000602082019050818103600083015261313d81613101565b9050919050565b6000604082019050818103600083015261315e81856126d4565b9050818103602083015261317281846126d4565b90509392505050565b7f455243313135353a206d696e7420746f20746865207a65726f2061646472657360008201527f7300000000000000000000000000000000000000000000000000000000000000602082015250565b60006131d7602183612262565b91506131e28261317b565b604082019050919050565b60006020820190508181036000830152613206816131ca565b9050919050565b60006040820190506132226000830185611fb6565b61322f6020830184611fb6565b9392505050565b7f455243313135353a2073657474696e6720617070726f76616c2073746174757360008201527f20666f722073656c660000000000000000000000000000000000000000000000602082015250565b6000613292602983612262565b915061329d82613236565b604082019050919050565b600060208201905081810360008301526132c181613285565b9050919050565b600081519050919050565b600082825260208201905092915050565b60006132ef826132c8565b6132f981856132d3565b9350613309818560208601612273565b613312816120a5565b840191505092915050565b600060a0820190506133326000830188612754565b61333f6020830187612754565b818103604083015261335181866126d4565b9050818103606083015261336581856126d4565b9050818103608083015261337981846132e4565b90509695505050505050565b6000815190506133948161200c565b92915050565b6000602082840312156133b0576133af611ed8565b5b60006133be84828501613385565b91505092915050565b60008160e01c9050919050565b600060033d11156133f35760046000803e6133f06000516133c7565b90505b90565b600060443d101561340657613489565b61340e611ece565b60043d036004823e80513d602482011167ffffffffffffffff82111715613436575050613489565b808201805167ffffffffffffffff8111156134545750505050613489565b80602083010160043d038501811115613471575050505050613489565b613480826020018501866120e5565b82955050505050505b90565b7f455243313135353a207472616e7366657220746f206e6f6e204552433131353560008201527f526563656976657220696d706c656d656e746572000000000000000000000000602082015250565b60006134e8603483612262565b91506134f38261348c565b604082019050919050565b60006020820190508181036000830152613517816134db565b9050919050565b7f455243313135353a204552433131353552656365697665722072656a6563746560008201527f6420746f6b656e73000000000000000000000000000000000000000000000000602082015250565b600061357a602883612262565b91506135858261351e565b604082019050919050565b600060208201905081810360008301526135a98161356d565b9050919050565b600060a0820190506135c56000830188612754565b6135d26020830187612754565b6135df6040830186611fb6565b6135ec6060830185611fb6565b81810360808301526135fe81846132e4565b9050969550505050505056fea2646970667358221220590d97fa8f1812b350e3c7980be3896f3f78805f02ff4df2ffd88292facd53b164736f6c634300080c0033",
  "immutableReferences": {
    "2057": [
      {
        "length": 32,
        "start": 3081
      },
      {
        "length": 32,
        "start": 3484
      }
    ],
    "2059": [
      {
        "length": 32,
        "start": 2750
      },
      {
        "length": 32,
        "start": 2967
      },
      {
        "length": 32,
        "start": 3330
      },
      {
        "length": 32,
        "start": 3448
      }
    ]
  },
  "source": "pragma solidity >=0.6.0 <0.9.0;\r\n \r\nimport \"@openzeppelin/contracts/token/ERC1155/ERC1155.sol\";\r\nimport \"@openzeppelin/contracts/access/Ownable.sol\";\r\nimport \"@openzeppelin/contracts/utils/math/SafeMath.sol\";\r\n \r\ncontract GuakGuakToken is ERC1155, Ownable \r\n{\r\n    using SafeMath for uint256;\r\n \r\n    uint256 public immutable unitPrice;\r\n    uint256 public immutable maxSupply;\r\n    uint256 public totalSupply;\r\n    bool public isSaleActive;\r\n    \r\n    constructor() public ERC1155(\"GuakGuak\") \r\n    {\r\n        unitPrice = 0.029  * 10 ** 18;\r\n        maxSupply = 100000;\r\n        totalSupply = 100;\r\n    }\r\n \r\n    function flipSaleState() public onlyOwner  {\r\n        isSaleActive = !isSaleActive;\r\n    }\r\n \r\n    function setURI(string memory URI) public onlyOwner {\r\n        _setURI(URI);\r\n    }\r\n\r\n\r\n \r\n   function reserve(uint256 count) public onlyOwner {   \r\n        require(totalSupply < 100);\r\n        uint256 mintIndex = totalSupply;\r\n        if (mintIndex < maxSupply) {\r\n            _mint(msg.sender, mintIndex, count, \"\");\r\n            totalSupply ++;\r\n        }\r\n    }\r\n \r\n    function mint(uint256 count) public payable {\r\n        require(isSaleActive, \"Sale is not active\");\r\n        require(totalSupply+1 <= maxSupply, \"Purchase would exceed max supply of GuakGuak\");\r\n        require(unitPrice == msg.value, \"Ether value is too small to buy the GuakGuak\");\r\n        require(count > 0, \"GuakGuak count should > 0\");\r\n        \r\n        payable(owner()).transfer(msg.value);\r\n \r\n        uint256 mintIndex = totalSupply;\r\n        if (mintIndex < maxSupply) {\r\n            _mint(msg.sender, mintIndex, count, \"\");\r\n            totalSupply ++;\r\n        }\r\n    }\r\n}",
  "sourcePath": "C:\\projects\\NFT Projects\\NFT-GuakGuakToken\\contracts\\GuakGuakToken.sol",
  "compiler": {
    "name": "solc",
    "version": "0.8.12+commit.f00d7308.Emscripten.clang"
  },
  "schemaVersion": "3.4.6",
  "updatedAt": "2022-03-24T04:03:32.159Z",
  "networkType": "ethereum",
  "devdoc": {
    "kind": "dev",
    "methods": {
      "balanceOf(address,uint256)": {
        "details": "See {IERC1155-balanceOf}. Requirements: - `account` cannot be the zero address."
      },
      "balanceOfBatch(address[],uint256[])": {
        "details": "See {IERC1155-balanceOfBatch}. Requirements: - `accounts` and `ids` must have the same length."
      },
      "isApprovedForAll(address,address)": {
        "details": "See {IERC1155-isApprovedForAll}."
      },
      "owner()": {
        "details": "Returns the address of the current owner."
      },
      "renounceOwnership()": {
        "details": "Leaves the contract without owner. It will not be possible to call `onlyOwner` functions anymore. Can only be called by the current owner. NOTE: Renouncing ownership will leave the contract without an owner, thereby removing any functionality that is only available to the owner."
      },
      "safeBatchTransferFrom(address,address,uint256[],uint256[],bytes)": {
        "details": "See {IERC1155-safeBatchTransferFrom}."
      },
      "safeTransferFrom(address,address,uint256,uint256,bytes)": {
        "details": "See {IERC1155-safeTransferFrom}."
      },
      "setApprovalForAll(address,bool)": {
        "details": "See {IERC1155-setApprovalForAll}."
      },
      "supportsInterface(bytes4)": {
        "details": "See {IERC165-supportsInterface}."
      },
      "transferOwnership(address)": {
        "details": "Transfers ownership of the contract to a new account (`newOwner`). Can only be called by the current owner."
      },
      "uri(uint256)": {
        "details": "See {IERC1155MetadataURI-uri}. This implementation returns the same URI for *all* token types. It relies on the token type ID substitution mechanism https://eips.ethereum.org/EIPS/eip-1155#metadata[defined in the EIP]. Clients calling this function must replace the `\\{id\\}` substring with the actual token type ID."
      }
    },
    "version": 1
  },
  "userdoc": {
    "kind": "user",
    "methods": {},
    "version": 1
  }
}