{
  "contractName": "HankoContract",
  "abi": [
    {
      "inputs": [],
      "stateMutability": "nonpayable",
      "type": "constructor"
    },
    {
      "anonymous": false,
      "inputs": [
        {
          "indexed": true,
          "internalType": "address",
          "name": "account",
          "type": "address"
        },
        {
          "indexed": true,
          "internalType": "address",
          "name": "operator",
          "type": "address"
        },
        {
          "indexed": false,
          "internalType": "bool",
          "name": "approved",
          "type": "bool"
        }
      ],
      "name": "ApprovalForAll",
      "type": "event"
    },
    {
      "anonymous": false,
      "inputs": [
        {
          "indexed": true,
          "internalType": "address",
          "name": "previousOwner",
          "type": "address"
        },
        {
          "indexed": true,
          "internalType": "address",
          "name": "newOwner",
          "type": "address"
        }
      ],
      "name": "OwnershipTransferred",
      "type": "event"
    },
    {
      "anonymous": false,
      "inputs": [
        {
          "indexed": true,
          "internalType": "address",
          "name": "operator",
          "type": "address"
        },
        {
          "indexed": true,
          "internalType": "address",
          "name": "from",
          "type": "address"
        },
        {
          "indexed": true,
          "internalType": "address",
          "name": "to",
          "type": "address"
        },
        {
          "indexed": false,
          "internalType": "uint256[]",
          "name": "ids",
          "type": "uint256[]"
        },
        {
          "indexed": false,
          "internalType": "uint256[]",
          "name": "values",
          "type": "uint256[]"
        }
      ],
      "name": "TransferBatch",
      "type": "event"
    },
    {
      "anonymous": false,
      "inputs": [
        {
          "indexed": true,
          "internalType": "address",
          "name": "operator",
          "type": "address"
        },
        {
          "indexed": true,
          "internalType": "address",
          "name": "from",
          "type": "address"
        },
        {
          "indexed": true,
          "internalType": "address",
          "name": "to",
          "type": "address"
        },
        {
          "indexed": false,
          "internalType": "uint256",
          "name": "id",
          "type": "uint256"
        },
        {
          "indexed": false,
          "internalType": "uint256",
          "name": "value",
          "type": "uint256"
        }
      ],
      "name": "TransferSingle",
      "type": "event"
    },
    {
      "anonymous": false,
      "inputs": [
        {
          "indexed": false,
          "internalType": "string",
          "name": "value",
          "type": "string"
        },
        {
          "indexed": true,
          "internalType": "uint256",
          "name": "id",
          "type": "uint256"
        }
      ],
      "name": "URI",
      "type": "event"
    },
    {
      "inputs": [],
      "name": "A",
      "outputs": [
        {
          "internalType": "uint256",
          "name": "",
          "type": "uint256"
        }
      ],
      "stateMutability": "view",
      "type": "function",
      "constant": true
    },
    {
      "inputs": [],
      "name": "B",
      "outputs": [
        {
          "internalType": "uint256",
          "name": "",
          "type": "uint256"
        }
      ],
      "stateMutability": "view",
      "type": "function",
      "constant": true
    },
    {
      "inputs": [],
      "name": "C",
      "outputs": [
        {
          "internalType": "uint256",
          "name": "",
          "type": "uint256"
        }
      ],
      "stateMutability": "view",
      "type": "function",
      "constant": true
    },
    {
      "inputs": [],
      "name": "D",
      "outputs": [
        {
          "internalType": "uint256",
          "name": "",
          "type": "uint256"
        }
      ],
      "stateMutability": "view",
      "type": "function",
      "constant": true
    },
    {
      "inputs": [],
      "name": "E",
      "outputs": [
        {
          "internalType": "uint256",
          "name": "",
          "type": "uint256"
        }
      ],
      "stateMutability": "view",
      "type": "function",
      "constant": true
    },
    {
      "inputs": [],
      "name": "F",
      "outputs": [
        {
          "internalType": "uint256",
          "name": "",
          "type": "uint256"
        }
      ],
      "stateMutability": "view",
      "type": "function",
      "constant": true
    },
    {
      "inputs": [],
      "name": "G",
      "outputs": [
        {
          "internalType": "uint256",
          "name": "",
          "type": "uint256"
        }
      ],
      "stateMutability": "view",
      "type": "function",
      "constant": true
    },
    {
      "inputs": [],
      "name": "H",
      "outputs": [
        {
          "internalType": "uint256",
          "name": "",
          "type": "uint256"
        }
      ],
      "stateMutability": "view",
      "type": "function",
      "constant": true
    },
    {
      "inputs": [],
      "name": "I",
      "outputs": [
        {
          "internalType": "uint256",
          "name": "",
          "type": "uint256"
        }
      ],
      "stateMutability": "view",
      "type": "function",
      "constant": true
    },
    {
      "inputs": [],
      "name": "J",
      "outputs": [
        {
          "internalType": "uint256",
          "name": "",
          "type": "uint256"
        }
      ],
      "stateMutability": "view",
      "type": "function",
      "constant": true
    },
    {
      "inputs": [
        {
          "internalType": "address",
          "name": "account",
          "type": "address"
        },
        {
          "internalType": "uint256",
          "name": "id",
          "type": "uint256"
        }
      ],
      "name": "balanceOf",
      "outputs": [
        {
          "internalType": "uint256",
          "name": "",
          "type": "uint256"
        }
      ],
      "stateMutability": "view",
      "type": "function",
      "constant": true
    },
    {
      "inputs": [
        {
          "internalType": "address[]",
          "name": "accounts",
          "type": "address[]"
        },
        {
          "internalType": "uint256[]",
          "name": "ids",
          "type": "uint256[]"
        }
      ],
      "name": "balanceOfBatch",
      "outputs": [
        {
          "internalType": "uint256[]",
          "name": "",
          "type": "uint256[]"
        }
      ],
      "stateMutability": "view",
      "type": "function",
      "constant": true
    },
    {
      "inputs": [
        {
          "internalType": "address",
          "name": "account",
          "type": "address"
        },
        {
          "internalType": "address",
          "name": "operator",
          "type": "address"
        }
      ],
      "name": "isApprovedForAll",
      "outputs": [
        {
          "internalType": "bool",
          "name": "",
          "type": "bool"
        }
      ],
      "stateMutability": "view",
      "type": "function",
      "constant": true
    },
    {
      "inputs": [],
      "name": "owner",
      "outputs": [
        {
          "internalType": "address",
          "name": "",
          "type": "address"
        }
      ],
      "stateMutability": "view",
      "type": "function",
      "constant": true
    },
    {
      "inputs": [],
      "name": "renounceOwnership",
      "outputs": [],
      "stateMutability": "nonpayable",
      "type": "function"
    },
    {
      "inputs": [
        {
          "internalType": "address",
          "name": "from",
          "type": "address"
        },
        {
          "internalType": "address",
          "name": "to",
          "type": "address"
        },
        {
          "internalType": "uint256[]",
          "name": "ids",
          "type": "uint256[]"
        },
        {
          "internalType": "uint256[]",
          "name": "amounts",
          "type": "uint256[]"
        },
        {
          "internalType": "bytes",
          "name": "data",
          "type": "bytes"
        }
      ],
      "name": "safeBatchTransferFrom",
      "outputs": [],
      "stateMutability": "nonpayable",
      "type": "function"
    },
    {
      "inputs": [
        {
          "internalType": "address",
          "name": "from",
          "type": "address"
        },
        {
          "internalType": "address",
          "name": "to",
          "type": "address"
        },
        {
          "internalType": "uint256",
          "name": "id",
          "type": "uint256"
        },
        {
          "internalType": "uint256",
          "name": "amount",
          "type": "uint256"
        },
        {
          "internalType": "bytes",
          "name": "data",
          "type": "bytes"
        }
      ],
      "name": "safeTransferFrom",
      "outputs": [],
      "stateMutability": "nonpayable",
      "type": "function"
    },
    {
      "inputs": [
        {
          "internalType": "address",
          "name": "operator",
          "type": "address"
        },
        {
          "internalType": "bool",
          "name": "approved",
          "type": "bool"
        }
      ],
      "name": "setApprovalForAll",
      "outputs": [],
      "stateMutability": "nonpayable",
      "type": "function"
    },
    {
      "inputs": [
        {
          "internalType": "bytes4",
          "name": "interfaceId",
          "type": "bytes4"
        }
      ],
      "name": "supportsInterface",
      "outputs": [
        {
          "internalType": "bool",
          "name": "",
          "type": "bool"
        }
      ],
      "stateMutability": "view",
      "type": "function",
      "constant": true
    },
    {
      "inputs": [
        {
          "internalType": "address",
          "name": "newOwner",
          "type": "address"
        }
      ],
      "name": "transferOwnership",
      "outputs": [],
      "stateMutability": "nonpayable",
      "type": "function"
    },
    {
      "inputs": [
        {
          "internalType": "uint256",
          "name": "",
          "type": "uint256"
        }
      ],
      "name": "uri",
      "outputs": [
        {
          "internalType": "string",
          "name": "",
          "type": "string"
        }
      ],
      "stateMutability": "view",
      "type": "function",
      "constant": true
    },
    {
      "inputs": [
        {
          "internalType": "address",
          "name": "account",
          "type": "address"
        },
        {
          "internalType": "uint256",
          "name": "id",
          "type": "uint256"
        },
        {
          "internalType": "uint256",
          "name": "amount",
          "type": "uint256"
        }
      ],
      "name": "mint",
      "outputs": [],
      "stateMutability": "nonpayable",
      "type": "function"
    },
    {
      "inputs": [
        {
          "internalType": "address",
          "name": "account",
          "type": "address"
        },
        {
          "internalType": "uint256",
          "name": "id",
          "type": "uint256"
        },
        {
          "internalType": "uint256",
          "name": "amount",
          "type": "uint256"
        }
      ],
      "name": "burn",
      "outputs": [],
      "stateMutability": "nonpayable",
      "type": "function"
    }
  ],
  "bytecode": "0x60806040523480156200001157600080fd5b506040518060800160405280604d815260200162004121604d91396200003d81620001b060201b60201c565b506200005e62000052620001cc60201b60201c565b620001d460201b60201c565b620000833360006001604051806020016040528060008152506200029a60201b60201c565b620000a733600180604051806020016040528060008152506200029a60201b60201c565b620000cc3360026001604051806020016040528060008152506200029a60201b60201c565b620000f13360036001604051806020016040528060008152506200029a60201b60201c565b620001163360046001604051806020016040528060008152506200029a60201b60201c565b6200013b3360056001604051806020016040528060008152506200029a60201b60201c565b620001603360066001604051806020016040528060008152506200029a60201b60201c565b620001853360076001604051806020016040528060008152506200029a60201b60201c565b620001aa3360086001604051806020016040528060008152506200029a60201b60201c565b62000e8a565b8060029080519060200190620001c892919062000705565b5050565b600033905090565b6000600360009054906101000a900473ffffffffffffffffffffffffffffffffffffffff16905081600360006101000a81548173ffffffffffffffffffffffffffffffffffffffff021916908373ffffffffffffffffffffffffffffffffffffffff1602179055508173ffffffffffffffffffffffffffffffffffffffff168173ffffffffffffffffffffffffffffffffffffffff167f8be0079c531659141344cd1fd0a4f28419497f9722a3daafe3b4186f6b6457e060405160405180910390a35050565b600073ffffffffffffffffffffffffffffffffffffffff168473ffffffffffffffffffffffffffffffffffffffff1614156200030d576040517f08c379a000000000000000000000000000000000000000000000000000000000815260040162000304906200083c565b60405180910390fd5b60006200031f620001cc60201b60201c565b905062000358816000876200033a886200045f60201b60201c565b6200034b886200045f60201b60201c565b87620004e060201b60201c565b8260008086815260200190815260200160002060008773ffffffffffffffffffffffffffffffffffffffff1673ffffffffffffffffffffffffffffffffffffffff1681526020019081526020016000206000828254620003b9919062000897565b925050819055508473ffffffffffffffffffffffffffffffffffffffff16600073ffffffffffffffffffffffffffffffffffffffff168273ffffffffffffffffffffffffffffffffffffffff167fc3d58168c5ae7397731d063d5bbf3d657854427343f4c083240f7aacaa2d0f6287876040516200043992919062000905565b60405180910390a46200045881600087878787620004e860201b60201c565b5050505050565b60606000600167ffffffffffffffff81111562000481576200048062000932565b5b604051908082528060200260200182016040528015620004b05781602001602082028036833780820191505090505b5090508281600081518110620004cb57620004ca62000961565b5b60200260200101818152505080915050919050565b505050505050565b620005148473ffffffffffffffffffffffffffffffffffffffff16620006e260201b62000c411760201c565b15620006da578373ffffffffffffffffffffffffffffffffffffffff1663f23a6e6187878686866040518663ffffffff1660e01b81526004016200055d95949392919062000a79565b6020604051808303816000875af19250505080156200059c57506040513d601f19601f8201168201806040525081019062000599919062000b49565b60015b6200064e57620005ab62000b88565b806308c379a014156200060f5750620005c362000be3565b80620005d0575062000611565b806040517f08c379a000000000000000000000000000000000000000000000000000000000815260040162000606919062000cd1565b60405180910390fd5b505b6040517f08c379a0000000000000000000000000000000000000000000000000000000008152600401620006459062000d6b565b60405180910390fd5b63f23a6e6160e01b7bffffffffffffffffffffffffffffffffffffffffffffffffffffffff1916817bffffffffffffffffffffffffffffffffffffffffffffffffffffffff191614620006d8576040517f08c379a0000000000000000000000000000000000000000000000000000000008152600401620006cf9062000e03565b60405180910390fd5b505b505050505050565b6000808273ffffffffffffffffffffffffffffffffffffffff163b119050919050565b828054620007139062000e54565b90600052602060002090601f01602090048101928262000737576000855562000783565b82601f106200075257805160ff191683800117855562000783565b8280016001018555821562000783579182015b828111156200078257825182559160200191906001019062000765565b5b50905062000792919062000796565b5090565b5b80821115620007b157600081600090555060010162000797565b5090565b600082825260208201905092915050565b7f455243313135353a206d696e7420746f20746865207a65726f2061646472657360008201527f7300000000000000000000000000000000000000000000000000000000000000602082015250565b600062000824602183620007b5565b91506200083182620007c6565b604082019050919050565b60006020820190508181036000830152620008578162000815565b9050919050565b6000819050919050565b7f4e487b7100000000000000000000000000000000000000000000000000000000600052601160045260246000fd5b6000620008a4826200085e565b9150620008b1836200085e565b9250827fffffffffffffffffffffffffffffffffffffffffffffffffffffffffffffffff03821115620008e957620008e862000868565b5b828201905092915050565b620008ff816200085e565b82525050565b60006040820190506200091c6000830185620008f4565b6200092b6020830184620008f4565b9392505050565b7f4e487b7100000000000000000000000000000000000000000000000000000000600052604160045260246000fd5b7f4e487b7100000000000000000000000000000000000000000000000000000000600052603260045260246000fd5b600073ffffffffffffffffffffffffffffffffffffffff82169050919050565b6000620009bd8262000990565b9050919050565b620009cf81620009b0565b82525050565b600081519050919050565b600082825260208201905092915050565b60005b8381101562000a11578082015181840152602081019050620009f4565b8381111562000a21576000848401525b50505050565b6000601f19601f8301169050919050565b600062000a4582620009d5565b62000a518185620009e0565b935062000a63818560208601620009f1565b62000a6e8162000a27565b840191505092915050565b600060a08201905062000a906000830188620009c4565b62000a9f6020830187620009c4565b62000aae6040830186620008f4565b62000abd6060830185620008f4565b818103608083015262000ad1818462000a38565b90509695505050505050565b6000604051905090565b600080fd5b60007fffffffff0000000000000000000000000000000000000000000000000000000082169050919050565b62000b238162000aec565b811462000b2f57600080fd5b50565b60008151905062000b438162000b18565b92915050565b60006020828403121562000b625762000b6162000ae7565b5b600062000b728482850162000b32565b91505092915050565b60008160e01c9050919050565b600060033d111562000baa5760046000803e62000ba760005162000b7b565b90505b90565b62000bb88262000a27565b810181811067ffffffffffffffff8211171562000bda5762000bd962000932565b5b80604052505050565b600060443d101562000bf55762000c82565b62000bff62000add565b60043d036004823e80513d602482011167ffffffffffffffff8211171562000c2957505062000c82565b808201805167ffffffffffffffff81111562000c49575050505062000c82565b80602083010160043d03850181111562000c6857505050505062000c82565b62000c798260200185018662000bad565b82955050505050505b90565b600081519050919050565b600062000c9d8262000c85565b62000ca98185620007b5565b935062000cbb818560208601620009f1565b62000cc68162000a27565b840191505092915050565b6000602082019050818103600083015262000ced818462000c90565b905092915050565b7f455243313135353a207472616e7366657220746f206e6f6e204552433131353560008201527f526563656976657220696d706c656d656e746572000000000000000000000000602082015250565b600062000d53603483620007b5565b915062000d608262000cf5565b604082019050919050565b6000602082019050818103600083015262000d868162000d44565b9050919050565b7f455243313135353a204552433131353552656365697665722072656a6563746560008201527f6420746f6b656e73000000000000000000000000000000000000000000000000602082015250565b600062000deb602883620007b5565b915062000df88262000d8d565b604082019050919050565b6000602082019050818103600083015262000e1e8162000ddc565b9050919050565b7f4e487b7100000000000000000000000000000000000000000000000000000000600052602260045260246000fd5b6000600282049050600182168062000e6d57607f821691505b6020821081141562000e845762000e8362000e25565b5b50919050565b6132878062000e9a6000396000f3fe608060405234801561001057600080fd5b506004361061014c5760003560e01c8063715018a6116100c3578063d72600061161007c578063d72600061461037d578063e985e9c51461039b578063f242432a146103cb578063f2fde38b146103e7578063f446c1d014610403578063f5298aca146104215761014c565b8063715018a6146102df57806383dfe5fd146102e95780638da5cb5b1461030757806392bbf6e814610325578063a22cb46514610343578063d053c8a81461035f5761014c565b806328811f591161011557806328811f591461021b5780632eb2c2d61461023957806332e7c5bf146102555780634e1273f4146102735780636fecb623146102a357806370a5d861146102c15761014c565b8062fdd58e1461015157806301ffc9a7146101815780630e89341c146101b15780630f529ba2146101e1578063156e29f6146101ff575b600080fd5b61016b60048036038101906101669190611d2c565b61043d565b6040516101789190611d7b565b60405180910390f35b61019b60048036038101906101969190611dee565b610506565b6040516101a89190611e36565b60405180910390f35b6101cb60048036038101906101c69190611e51565b6105e8565b6040516101d89190611f17565b60405180910390f35b6101e961067c565b6040516101f69190611d7b565b60405180910390f35b61021960048036038101906102149190611f39565b610681565b005b61022361071d565b6040516102309190611d7b565b60405180910390f35b610253600480360381019061024e9190612189565b610722565b005b61025d6107c3565b60405161026a9190611d7b565b60405180910390f35b61028d6004803603810190610288919061231b565b6107c8565b60405161029a9190612451565b60405180910390f35b6102ab6108e1565b6040516102b89190611d7b565b60405180910390f35b6102c96108e6565b6040516102d69190611d7b565b60405180910390f35b6102e76108eb565b005b6102f1610973565b6040516102fe9190611d7b565b60405180910390f35b61030f610978565b60405161031c9190612482565b60405180910390f35b61032d6109a2565b60405161033a9190611d7b565b60405180910390f35b61035d600480360381019061035891906124c9565b6109a7565b005b6103676109bd565b6040516103749190611d7b565b60405180910390f35b6103856109c2565b6040516103929190611d7b565b60405180910390f35b6103b560048036038101906103b09190612509565b6109c7565b6040516103c29190611e36565b60405180910390f35b6103e560048036038101906103e09190612549565b610a5b565b005b61040160048036038101906103fc91906125e0565b610afc565b005b61040b610bf4565b6040516104189190611d7b565b60405180910390f35b61043b60048036038101906104369190611f39565b610bf9565b005b60008073ffffffffffffffffffffffffffffffffffffffff168373ffffffffffffffffffffffffffffffffffffffff1614156104ae576040517f08c379a00000000000000000000000000000000000000000000000000000000081526004016104a59061267f565b60405180910390fd5b60008083815260200190815260200160002060008473ffffffffffffffffffffffffffffffffffffffff1673ffffffffffffffffffffffffffffffffffffffff16815260200190815260200160002054905092915050565b60007fd9b67a26000000000000000000000000000000000000000000000000000000007bffffffffffffffffffffffffffffffffffffffffffffffffffffffff1916827bffffffffffffffffffffffffffffffffffffffffffffffffffffffff191614806105d157507f0e89341c000000000000000000000000000000000000000000000000000000007bffffffffffffffffffffffffffffffffffffffffffffffffffffffff1916827bffffffffffffffffffffffffffffffffffffffffffffffffffffffff1916145b806105e157506105e082610c64565b5b9050919050565b6060600280546105f7906126ce565b80601f0160208091040260200160405190810160405280929190818152602001828054610623906126ce565b80156106705780601f1061064557610100808354040283529160200191610670565b820191906000526020600020905b81548152906001019060200180831161065357829003601f168201915b50505050509050919050565b600381565b610689610cce565b73ffffffffffffffffffffffffffffffffffffffff166106a7610978565b73ffffffffffffffffffffffffffffffffffffffff16146106fd576040517f08c379a00000000000000000000000000000000000000000000000000000000081526004016106f49061274c565b60405180910390fd5b61071833838360405180602001604052806000815250610cd6565b505050565b600581565b61072a610cce565b73ffffffffffffffffffffffffffffffffffffffff168573ffffffffffffffffffffffffffffffffffffffff161480610770575061076f8561076a610cce565b6109c7565b5b6107af576040517f08c379a00000000000000000000000000000000000000000000000000000000081526004016107a6906127de565b60405180910390fd5b6107bc8585858585610e6c565b5050505050565b600181565b6060815183511461080e576040517f08c379a000000000000000000000000000000000000000000000000000000000815260040161080590612870565b60405180910390fd5b6000835167ffffffffffffffff81111561082b5761082a611f91565b5b6040519080825280602002602001820160405280156108595781602001602082028036833780820191505090505b50905060005b84518110156108d6576108a685828151811061087e5761087d612890565b5b602002602001015185838151811061089957610898612890565b5b602002602001015161043d565b8282815181106108b9576108b8612890565b5b602002602001018181525050806108cf906128ee565b905061085f565b508091505092915050565b600681565b600781565b6108f3610cce565b73ffffffffffffffffffffffffffffffffffffffff16610911610978565b73ffffffffffffffffffffffffffffffffffffffff1614610967576040517f08c379a000000000000000000000000000000000000000000000000000000000815260040161095e9061274c565b60405180910390fd5b6109716000611180565b565b600281565b6000600360009054906101000a900473ffffffffffffffffffffffffffffffffffffffff16905090565b600481565b6109b96109b2610cce565b8383611246565b5050565b600981565b600881565b6000600160008473ffffffffffffffffffffffffffffffffffffffff1673ffffffffffffffffffffffffffffffffffffffff16815260200190815260200160002060008373ffffffffffffffffffffffffffffffffffffffff1673ffffffffffffffffffffffffffffffffffffffff16815260200190815260200160002060009054906101000a900460ff16905092915050565b610a63610cce565b73ffffffffffffffffffffffffffffffffffffffff168573ffffffffffffffffffffffffffffffffffffffff161480610aa95750610aa885610aa3610cce565b6109c7565b5b610ae8576040517f08c379a0000000000000000000000000000000000000000000000000000000008152600401610adf906129a9565b60405180910390fd5b610af585858585856113b3565b5050505050565b610b04610cce565b73ffffffffffffffffffffffffffffffffffffffff16610b22610978565b73ffffffffffffffffffffffffffffffffffffffff1614610b78576040517f08c379a0000000000000000000000000000000000000000000000000000000008152600401610b6f9061274c565b60405180910390fd5b600073ffffffffffffffffffffffffffffffffffffffff168173ffffffffffffffffffffffffffffffffffffffff161415610be8576040517f08c379a0000000000000000000000000000000000000000000000000000000008152600401610bdf90612a3b565b60405180910390fd5b610bf181611180565b50565b600081565b8273ffffffffffffffffffffffffffffffffffffffff163373ffffffffffffffffffffffffffffffffffffffff1614610c3157600080fd5b610c3c838383611635565b505050565b6000808273ffffffffffffffffffffffffffffffffffffffff163b119050919050565b60007f01ffc9a7000000000000000000000000000000000000000000000000000000007bffffffffffffffffffffffffffffffffffffffffffffffffffffffff1916827bffffffffffffffffffffffffffffffffffffffffffffffffffffffff1916149050919050565b600033905090565b600073ffffffffffffffffffffffffffffffffffffffff168473ffffffffffffffffffffffffffffffffffffffff161415610d46576040517f08c379a0000000000000000000000000000000000000000000000000000000008152600401610d3d90612acd565b60405180910390fd5b6000610d50610cce565b9050610d7181600087610d6288611852565b610d6b88611852565b876118cc565b8260008086815260200190815260200160002060008773ffffffffffffffffffffffffffffffffffffffff1673ffffffffffffffffffffffffffffffffffffffff1681526020019081526020016000206000828254610dd09190612aed565b925050819055508473ffffffffffffffffffffffffffffffffffffffff16600073ffffffffffffffffffffffffffffffffffffffff168273ffffffffffffffffffffffffffffffffffffffff167fc3d58168c5ae7397731d063d5bbf3d657854427343f4c083240f7aacaa2d0f628787604051610e4e929190612b43565b60405180910390a4610e65816000878787876118d4565b5050505050565b8151835114610eb0576040517f08c379a0000000000000000000000000000000000000000000000000000000008152600401610ea790612bde565b60405180910390fd5b600073ffffffffffffffffffffffffffffffffffffffff168473ffffffffffffffffffffffffffffffffffffffff161415610f20576040517f08c379a0000000000000000000000000000000000000000000000000000000008152600401610f1790612c70565b60405180910390fd5b6000610f2a610cce565b9050610f3a8187878787876118cc565b60005b84518110156110eb576000858281518110610f5b57610f5a612890565b5b602002602001015190506000858381518110610f7a57610f79612890565b5b60200260200101519050600080600084815260200190815260200160002060008b73ffffffffffffffffffffffffffffffffffffffff1673ffffffffffffffffffffffffffffffffffffffff1681526020019081526020016000205490508181101561101b576040517f08c379a000000000000000000000000000000000000000000000000000000000815260040161101290612d02565b60405180910390fd5b81810360008085815260200190815260200160002060008c73ffffffffffffffffffffffffffffffffffffffff1673ffffffffffffffffffffffffffffffffffffffff168152602001908152602001600020819055508160008085815260200190815260200160002060008b73ffffffffffffffffffffffffffffffffffffffff1673ffffffffffffffffffffffffffffffffffffffff16815260200190815260200160002060008282546110d09190612aed565b92505081905550505050806110e4906128ee565b9050610f3d565b508473ffffffffffffffffffffffffffffffffffffffff168673ffffffffffffffffffffffffffffffffffffffff168273ffffffffffffffffffffffffffffffffffffffff167f4a39dc06d4c0dbc64b70af90fd698a233a518aa5d07e595d983b8c0526c8f7fb8787604051611162929190612d22565b60405180910390a4611178818787878787611aac565b505050505050565b6000600360009054906101000a900473ffffffffffffffffffffffffffffffffffffffff16905081600360006101000a81548173ffffffffffffffffffffffffffffffffffffffff021916908373ffffffffffffffffffffffffffffffffffffffff1602179055508173ffffffffffffffffffffffffffffffffffffffff168173ffffffffffffffffffffffffffffffffffffffff167f8be0079c531659141344cd1fd0a4f28419497f9722a3daafe3b4186f6b6457e060405160405180910390a35050565b8173ffffffffffffffffffffffffffffffffffffffff168373ffffffffffffffffffffffffffffffffffffffff1614156112b5576040517f08c379a00000000000000000000000000000000000000000000000000000000081526004016112ac90612dcb565b60405180910390fd5b80600160008573ffffffffffffffffffffffffffffffffffffffff1673ffffffffffffffffffffffffffffffffffffffff16815260200190815260200160002060008473ffffffffffffffffffffffffffffffffffffffff1673ffffffffffffffffffffffffffffffffffffffff16815260200190815260200160002060006101000a81548160ff0219169083151502179055508173ffffffffffffffffffffffffffffffffffffffff168373ffffffffffffffffffffffffffffffffffffffff167f17307eab39ab6107e8899845ad3d59bd9653f200f220920489ca2b5937696c31836040516113a69190611e36565b60405180910390a3505050565b600073ffffffffffffffffffffffffffffffffffffffff168473ffffffffffffffffffffffffffffffffffffffff161415611423576040517f08c379a000000000000000000000000000000000000000000000000000000000815260040161141a90612c70565b60405180910390fd5b600061142d610cce565b905061144d81878761143e88611852565b61144788611852565b876118cc565b600080600086815260200190815260200160002060008873ffffffffffffffffffffffffffffffffffffffff1673ffffffffffffffffffffffffffffffffffffffff168152602001908152602001600020549050838110156114e4576040517f08c379a00000000000000000000000000000000000000000000000000000000081526004016114db90612d02565b60405180910390fd5b83810360008087815260200190815260200160002060008973ffffffffffffffffffffffffffffffffffffffff1673ffffffffffffffffffffffffffffffffffffffff168152602001908152602001600020819055508360008087815260200190815260200160002060008873ffffffffffffffffffffffffffffffffffffffff1673ffffffffffffffffffffffffffffffffffffffff16815260200190815260200160002060008282546115999190612aed565b925050819055508573ffffffffffffffffffffffffffffffffffffffff168773ffffffffffffffffffffffffffffffffffffffff168373ffffffffffffffffffffffffffffffffffffffff167fc3d58168c5ae7397731d063d5bbf3d657854427343f4c083240f7aacaa2d0f628888604051611616929190612b43565b60405180910390a461162c8288888888886118d4565b50505050505050565b600073ffffffffffffffffffffffffffffffffffffffff168373ffffffffffffffffffffffffffffffffffffffff1614156116a5576040517f08c379a000000000000000000000000000000000000000000000000000000000815260040161169c90612e5d565b60405180910390fd5b60006116af610cce565b90506116df818560006116c187611852565b6116ca87611852565b604051806020016040528060008152506118cc565b600080600085815260200190815260200160002060008673ffffffffffffffffffffffffffffffffffffffff1673ffffffffffffffffffffffffffffffffffffffff16815260200190815260200160002054905082811015611776576040517f08c379a000000000000000000000000000000000000000000000000000000000815260040161176d90612eef565b60405180910390fd5b82810360008086815260200190815260200160002060008773ffffffffffffffffffffffffffffffffffffffff1673ffffffffffffffffffffffffffffffffffffffff16815260200190815260200160002081905550600073ffffffffffffffffffffffffffffffffffffffff168573ffffffffffffffffffffffffffffffffffffffff168373ffffffffffffffffffffffffffffffffffffffff167fc3d58168c5ae7397731d063d5bbf3d657854427343f4c083240f7aacaa2d0f628787604051611843929190612b43565b60405180910390a45050505050565b60606000600167ffffffffffffffff81111561187157611870611f91565b5b60405190808252806020026020018201604052801561189f5781602001602082028036833780820191505090505b50905082816000815181106118b7576118b6612890565b5b60200260200101818152505080915050919050565b505050505050565b6118f38473ffffffffffffffffffffffffffffffffffffffff16610c41565b15611aa4578373ffffffffffffffffffffffffffffffffffffffff1663f23a6e6187878686866040518663ffffffff1660e01b8152600401611939959493929190612f64565b6020604051808303816000875af192505050801561197557506040513d601f19601f820116820180604052508101906119729190612fd3565b60015b611a1b5761198161300d565b806308c379a014156119de575061199661302f565b806119a157506119e0565b806040517f08c379a00000000000000000000000000000000000000000000000000000000081526004016119d59190611f17565b60405180910390fd5b505b6040517f08c379a0000000000000000000000000000000000000000000000000000000008152600401611a1290613137565b60405180910390fd5b63f23a6e6160e01b7bffffffffffffffffffffffffffffffffffffffffffffffffffffffff1916817bffffffffffffffffffffffffffffffffffffffffffffffffffffffff191614611aa2576040517f08c379a0000000000000000000000000000000000000000000000000000000008152600401611a99906131c9565b60405180910390fd5b505b505050505050565b611acb8473ffffffffffffffffffffffffffffffffffffffff16610c41565b15611c7c578373ffffffffffffffffffffffffffffffffffffffff1663bc197c8187878686866040518663ffffffff1660e01b8152600401611b119594939291906131e9565b6020604051808303816000875af1925050508015611b4d57506040513d601f19601f82011682018060405250810190611b4a9190612fd3565b60015b611bf357611b5961300d565b806308c379a01415611bb65750611b6e61302f565b80611b795750611bb8565b806040517f08c379a0000000000000000000000000000000000000000000000000000000008152600401611bad9190611f17565b60405180910390fd5b505b6040517f08c379a0000000000000000000000000000000000000000000000000000000008152600401611bea90613137565b60405180910390fd5b63bc197c8160e01b7bffffffffffffffffffffffffffffffffffffffffffffffffffffffff1916817bffffffffffffffffffffffffffffffffffffffffffffffffffffffff191614611c7a576040517f08c379a0000000000000000000000000000000000000000000000000000000008152600401611c71906131c9565b60405180910390fd5b505b505050505050565b6000604051905090565b600080fd5b600080fd5b600073ffffffffffffffffffffffffffffffffffffffff82169050919050565b6000611cc382611c98565b9050919050565b611cd381611cb8565b8114611cde57600080fd5b50565b600081359050611cf081611cca565b92915050565b6000819050919050565b611d0981611cf6565b8114611d1457600080fd5b50565b600081359050611d2681611d00565b92915050565b60008060408385031215611d4357611d42611c8e565b5b6000611d5185828601611ce1565b9250506020611d6285828601611d17565b9150509250929050565b611d7581611cf6565b82525050565b6000602082019050611d906000830184611d6c565b92915050565b60007fffffffff0000000000000000000000000000000000000000000000000000000082169050919050565b611dcb81611d96565b8114611dd657600080fd5b50565b600081359050611de881611dc2565b92915050565b600060208284031215611e0457611e03611c8e565b5b6000611e1284828501611dd9565b91505092915050565b60008115159050919050565b611e3081611e1b565b82525050565b6000602082019050611e4b6000830184611e27565b92915050565b600060208284031215611e6757611e66611c8e565b5b6000611e7584828501611d17565b91505092915050565b600081519050919050565b600082825260208201905092915050565b60005b83811015611eb8578082015181840152602081019050611e9d565b83811115611ec7576000848401525b50505050565b6000601f19601f8301169050919050565b6000611ee982611e7e565b611ef38185611e89565b9350611f03818560208601611e9a565b611f0c81611ecd565b840191505092915050565b60006020820190508181036000830152611f318184611ede565b905092915050565b600080600060608486031215611f5257611f51611c8e565b5b6000611f6086828701611ce1565b9350506020611f7186828701611d17565b9250506040611f8286828701611d17565b9150509250925092565b600080fd5b7f4e487b7100000000000000000000000000000000000000000000000000000000600052604160045260246000fd5b611fc982611ecd565b810181811067ffffffffffffffff82111715611fe857611fe7611f91565b5b80604052505050565b6000611ffb611c84565b90506120078282611fc0565b919050565b600067ffffffffffffffff82111561202757612026611f91565b5b602082029050602081019050919050565b600080fd5b600061205061204b8461200c565b611ff1565b9050808382526020820190506020840283018581111561207357612072612038565b5b835b8181101561209c57806120888882611d17565b845260208401935050602081019050612075565b5050509392505050565b600082601f8301126120bb576120ba611f8c565b5b81356120cb84826020860161203d565b91505092915050565b600080fd5b600067ffffffffffffffff8211156120f4576120f3611f91565b5b6120fd82611ecd565b9050602081019050919050565b82818337600083830152505050565b600061212c612127846120d9565b611ff1565b905082815260208101848484011115612148576121476120d4565b5b61215384828561210a565b509392505050565b600082601f8301126121705761216f611f8c565b5b8135612180848260208601612119565b91505092915050565b600080600080600060a086880312156121a5576121a4611c8e565b5b60006121b388828901611ce1565b95505060206121c488828901611ce1565b945050604086013567ffffffffffffffff8111156121e5576121e4611c93565b5b6121f1888289016120a6565b935050606086013567ffffffffffffffff81111561221257612211611c93565b5b61221e888289016120a6565b925050608086013567ffffffffffffffff81111561223f5761223e611c93565b5b61224b8882890161215b565b9150509295509295909350565b600067ffffffffffffffff82111561227357612272611f91565b5b602082029050602081019050919050565b600061229761229284612258565b611ff1565b905080838252602082019050602084028301858111156122ba576122b9612038565b5b835b818110156122e357806122cf8882611ce1565b8452602084019350506020810190506122bc565b5050509392505050565b600082601f83011261230257612301611f8c565b5b8135612312848260208601612284565b91505092915050565b6000806040838503121561233257612331611c8e565b5b600083013567ffffffffffffffff8111156123505761234f611c93565b5b61235c858286016122ed565b925050602083013567ffffffffffffffff81111561237d5761237c611c93565b5b612389858286016120a6565b9150509250929050565b600081519050919050565b600082825260208201905092915050565b6000819050602082019050919050565b6123c881611cf6565b82525050565b60006123da83836123bf565b60208301905092915050565b6000602082019050919050565b60006123fe82612393565b612408818561239e565b9350612413836123af565b8060005b8381101561244457815161242b88826123ce565b9750612436836123e6565b925050600181019050612417565b5085935050505092915050565b6000602082019050818103600083015261246b81846123f3565b905092915050565b61247c81611cb8565b82525050565b60006020820190506124976000830184612473565b92915050565b6124a681611e1b565b81146124b157600080fd5b50565b6000813590506124c38161249d565b92915050565b600080604083850312156124e0576124df611c8e565b5b60006124ee85828601611ce1565b92505060206124ff858286016124b4565b9150509250929050565b600080604083850312156125205761251f611c8e565b5b600061252e85828601611ce1565b925050602061253f85828601611ce1565b9150509250929050565b600080600080600060a0868803121561256557612564611c8e565b5b600061257388828901611ce1565b955050602061258488828901611ce1565b945050604061259588828901611d17565b93505060606125a688828901611d17565b925050608086013567ffffffffffffffff8111156125c7576125c6611c93565b5b6125d38882890161215b565b9150509295509295909350565b6000602082840312156125f6576125f5611c8e565b5b600061260484828501611ce1565b91505092915050565b7f455243313135353a2062616c616e636520717565727920666f7220746865207a60008201527f65726f2061646472657373000000000000000000000000000000000000000000602082015250565b6000612669602b83611e89565b91506126748261260d565b604082019050919050565b600060208201905081810360008301526126988161265c565b9050919050565b7f4e487b7100000000000000000000000000000000000000000000000000000000600052602260045260246000fd5b600060028204905060018216806126e657607f821691505b602082108114156126fa576126f961269f565b5b50919050565b7f4f776e61626c653a2063616c6c6572206973206e6f7420746865206f776e6572600082015250565b6000612736602083611e89565b915061274182612700565b602082019050919050565b6000602082019050818103600083015261276581612729565b9050919050565b7f455243313135353a207472616e736665722063616c6c6572206973206e6f742060008201527f6f776e6572206e6f7220617070726f7665640000000000000000000000000000602082015250565b60006127c8603283611e89565b91506127d38261276c565b604082019050919050565b600060208201905081810360008301526127f7816127bb565b9050919050565b7f455243313135353a206163636f756e747320616e6420696473206c656e67746860008201527f206d69736d617463680000000000000000000000000000000000000000000000602082015250565b600061285a602983611e89565b9150612865826127fe565b604082019050919050565b600060208201905081810360008301526128898161284d565b9050919050565b7f4e487b7100000000000000000000000000000000000000000000000000000000600052603260045260246000fd5b7f4e487b7100000000000000000000000000000000000000000000000000000000600052601160045260246000fd5b60006128f982611cf6565b91507fffffffffffffffffffffffffffffffffffffffffffffffffffffffffffffffff82141561292c5761292b6128bf565b5b600182019050919050565b7f455243313135353a2063616c6c6572206973206e6f74206f776e6572206e6f7260008201527f20617070726f7665640000000000000000000000000000000000000000000000602082015250565b6000612993602983611e89565b915061299e82612937565b604082019050919050565b600060208201905081810360008301526129c281612986565b9050919050565b7f4f776e61626c653a206e6577206f776e657220697320746865207a65726f206160008201527f6464726573730000000000000000000000000000000000000000000000000000602082015250565b6000612a25602683611e89565b9150612a30826129c9565b604082019050919050565b60006020820190508181036000830152612a5481612a18565b9050919050565b7f455243313135353a206d696e7420746f20746865207a65726f2061646472657360008201527f7300000000000000000000000000000000000000000000000000000000000000602082015250565b6000612ab7602183611e89565b9150612ac282612a5b565b604082019050919050565b60006020820190508181036000830152612ae681612aaa565b9050919050565b6000612af882611cf6565b9150612b0383611cf6565b9250827fffffffffffffffffffffffffffffffffffffffffffffffffffffffffffffffff03821115612b3857612b376128bf565b5b828201905092915050565b6000604082019050612b586000830185611d6c565b612b656020830184611d6c565b9392505050565b7f455243313135353a2069647320616e6420616d6f756e7473206c656e6774682060008201527f6d69736d61746368000000000000000000000000000000000000000000000000602082015250565b6000612bc8602883611e89565b9150612bd382612b6c565b604082019050919050565b60006020820190508181036000830152612bf781612bbb565b9050919050565b7f455243313135353a207472616e7366657220746f20746865207a65726f20616460008201527f6472657373000000000000000000000000000000000000000000000000000000602082015250565b6000612c5a602583611e89565b9150612c6582612bfe565b604082019050919050565b60006020820190508181036000830152612c8981612c4d565b9050919050565b7f455243313135353a20696e73756666696369656e742062616c616e636520666f60008201527f72207472616e7366657200000000000000000000000000000000000000000000602082015250565b6000612cec602a83611e89565b9150612cf782612c90565b604082019050919050565b60006020820190508181036000830152612d1b81612cdf565b9050919050565b60006040820190508181036000830152612d3c81856123f3565b90508181036020830152612d5081846123f3565b90509392505050565b7f455243313135353a2073657474696e6720617070726f76616c2073746174757360008201527f20666f722073656c660000000000000000000000000000000000000000000000602082015250565b6000612db5602983611e89565b9150612dc082612d59565b604082019050919050565b60006020820190508181036000830152612de481612da8565b9050919050565b7f455243313135353a206275726e2066726f6d20746865207a65726f206164647260008201527f6573730000000000000000000000000000000000000000000000000000000000602082015250565b6000612e47602383611e89565b9150612e5282612deb565b604082019050919050565b60006020820190508181036000830152612e7681612e3a565b9050919050565b7f455243313135353a206275726e20616d6f756e7420657863656564732062616c60008201527f616e636500000000000000000000000000000000000000000000000000000000602082015250565b6000612ed9602483611e89565b9150612ee482612e7d565b604082019050919050565b60006020820190508181036000830152612f0881612ecc565b9050919050565b600081519050919050565b600082825260208201905092915050565b6000612f3682612f0f565b612f408185612f1a565b9350612f50818560208601611e9a565b612f5981611ecd565b840191505092915050565b600060a082019050612f796000830188612473565b612f866020830187612473565b612f936040830186611d6c565b612fa06060830185611d6c565b8181036080830152612fb28184612f2b565b90509695505050505050565b600081519050612fcd81611dc2565b92915050565b600060208284031215612fe957612fe8611c8e565b5b6000612ff784828501612fbe565b91505092915050565b60008160e01c9050919050565b600060033d111561302c5760046000803e613029600051613000565b90505b90565b600060443d101561303f576130c2565b613047611c84565b60043d036004823e80513d602482011167ffffffffffffffff8211171561306f5750506130c2565b808201805167ffffffffffffffff81111561308d57505050506130c2565b80602083010160043d0385018111156130aa5750505050506130c2565b6130b982602001850186611fc0565b82955050505050505b90565b7f455243313135353a207472616e7366657220746f206e6f6e204552433131353560008201527f526563656976657220696d706c656d656e746572000000000000000000000000602082015250565b6000613121603483611e89565b915061312c826130c5565b604082019050919050565b6000602082019050818103600083015261315081613114565b9050919050565b7f455243313135353a204552433131353552656365697665722072656a6563746560008201527f6420746f6b656e73000000000000000000000000000000000000000000000000602082015250565b60006131b3602883611e89565b91506131be82613157565b604082019050919050565b600060208201905081810360008301526131e2816131a6565b9050919050565b600060a0820190506131fe6000830188612473565b61320b6020830187612473565b818103604083015261321d81866123f3565b9050818103606083015261323181856123f3565b905081810360808301526132458184612f2b565b9050969550505050505056fea26469706673582212209d12ad96465f77cba2c793e9d359caf4daf0e88a23e81b51b9eaa6eac3f8acba64736f6c634300080c003368747470733a2f2f697066732e696f2f697066732f516d56764a5837663950426b6d555856794b4a3852344372554d55555461715a4250364c58654c4d734c7a4271462f7b69647d2e6a736f6e",
  "immutableReferences": {},
  "source": "// SPDX-License-Identifier: MIT\r\npragma solidity >=0.6.0 <0.9.0;\r\n \r\nimport \"@openzeppelin/contracts/token/ERC1155/ERC1155.sol\";\r\nimport \"@openzeppelin/contracts/access/Ownable.sol\";\r\nimport \"@openzeppelin/contracts/utils/math/SafeMath.sol\";\r\n\r\n\r\ncontract HankoContract is ERC1155, Ownable {\r\n    uint256 public constant A=0;\r\n    uint256 public constant B=1;\r\n    uint256 public constant C=2;\r\n    uint256 public constant D=3;\r\n    uint256 public constant E=4;\r\n    uint256 public constant F=5;\r\n    uint256 public constant G=6;\r\n    uint256 public constant H=7;\r\n    uint256 public constant I=8;\r\n    uint256 public constant J=9;\r\n\r\n    constructor() ERC1155(\"https://ipfs.io/ipfs/QmVvJX7f9PBkmUXVyKJ8R4CrUMUUTaqZBP6LXeLMsLzBqF/{id}.json\") {\r\n        _mint(msg.sender,A,1,\"\");\r\n        _mint(msg.sender,B,1,\"\");\r\n        _mint(msg.sender,C,1,\"\");\r\n        _mint(msg.sender,D,1,\"\");\r\n        _mint(msg.sender,E,1,\"\");\r\n        _mint(msg.sender,F,1,\"\");\r\n        _mint(msg.sender,G,1,\"\");\r\n        _mint(msg.sender,H,1,\"\");\r\n        _mint(msg.sender,I,1,\"\");\r\n    }\r\n\r\n    function mint(address account,uint256 id, uint256 amount) public onlyOwner{\r\n        _mint(msg.sender,id,amount,\"\");\r\n    }\r\n\r\n    function burn(address account,uint256 id, uint256 amount) public {\r\n        require(msg.sender==account);\r\n        _burn(account,id,amount);\r\n    }\r\n\r\n\r\n\r\n}",
  "sourcePath": "C:\\projects\\NFT Projects\\NFT-GuakGuakToken\\contracts\\HankoContract.sol",
  "compiler": {
    "name": "solc",
    "version": "0.8.12+commit.f00d7308.Emscripten.clang"
  },
  "schemaVersion": "3.4.6",
  "updatedAt": "2022-04-05T15:21:40.043Z",
  "networkType": "ethereum",
  "devdoc": {
    "kind": "dev",
    "methods": {
      "balanceOf(address,uint256)": {
        "details": "See {IERC1155-balanceOf}. Requirements: - `account` cannot be the zero address."
      },
      "balanceOfBatch(address[],uint256[])": {
        "details": "See {IERC1155-balanceOfBatch}. Requirements: - `accounts` and `ids` must have the same length."
      },
      "isApprovedForAll(address,address)": {
        "details": "See {IERC1155-isApprovedForAll}."
      },
      "owner()": {
        "details": "Returns the address of the current owner."
      },
      "renounceOwnership()": {
        "details": "Leaves the contract without owner. It will not be possible to call `onlyOwner` functions anymore. Can only be called by the current owner. NOTE: Renouncing ownership will leave the contract without an owner, thereby removing any functionality that is only available to the owner."
      },
      "safeBatchTransferFrom(address,address,uint256[],uint256[],bytes)": {
        "details": "See {IERC1155-safeBatchTransferFrom}."
      },
      "safeTransferFrom(address,address,uint256,uint256,bytes)": {
        "details": "See {IERC1155-safeTransferFrom}."
      },
      "setApprovalForAll(address,bool)": {
        "details": "See {IERC1155-setApprovalForAll}."
      },
      "supportsInterface(bytes4)": {
        "details": "See {IERC165-supportsInterface}."
      },
      "transferOwnership(address)": {
        "details": "Transfers ownership of the contract to a new account (`newOwner`). Can only be called by the current owner."
      },
      "uri(uint256)": {
        "details": "See {IERC1155MetadataURI-uri}. This implementation returns the same URI for *all* token types. It relies on the token type ID substitution mechanism https://eips.ethereum.org/EIPS/eip-1155#metadata[defined in the EIP]. Clients calling this function must replace the `\\{id\\}` substring with the actual token type ID."
      }
    },
    "version": 1
  },
  "userdoc": {
    "kind": "user",
    "methods": {},
    "version": 1
  }
}